{
  "address": "0x8f3AE32ddD5e20c814d12acdc15Eaf2e225b77d9",
  "abi": [
    {
      "inputs": [],
      "payable": false,
      "stateMutability": "nonpayable",
      "type": "constructor"
    },
    {
      "anonymous": false,
      "inputs": [
        {
          "indexed": false,
          "internalType": "string",
          "name": "action",
          "type": "string"
        },
        {
          "indexed": false,
          "internalType": "bool",
          "name": "pauseState",
          "type": "bool"
        }
      ],
      "name": "ActionPaused",
      "type": "event"
    },
    {
      "anonymous": false,
      "inputs": [
        {
          "indexed": false,
          "internalType": "contract CToken",
          "name": "cToken",
          "type": "address"
        },
        {
          "indexed": false,
          "internalType": "string",
          "name": "action",
          "type": "string"
        },
        {
          "indexed": false,
          "internalType": "bool",
          "name": "pauseState",
          "type": "bool"
        }
      ],
      "name": "ActionPaused",
      "type": "event"
    },
    {
      "anonymous": false,
      "inputs": [
        {
          "indexed": false,
          "internalType": "address",
          "name": "protocol",
          "type": "address"
        },
        {
          "indexed": false,
          "internalType": "address",
          "name": "market",
          "type": "address"
        },
        {
          "indexed": false,
          "internalType": "uint256",
          "name": "creditLimit",
          "type": "uint256"
        }
      ],
      "name": "CreditLimitChanged",
      "type": "event"
    },
    {
      "anonymous": false,
      "inputs": [
        {
          "indexed": false,
          "internalType": "uint256",
          "name": "error",
          "type": "uint256"
        },
        {
          "indexed": false,
          "internalType": "uint256",
          "name": "info",
          "type": "uint256"
        },
        {
          "indexed": false,
          "internalType": "uint256",
          "name": "detail",
          "type": "uint256"
        }
      ],
      "name": "Failure",
      "type": "event"
    },
    {
      "anonymous": false,
      "inputs": [
        {
          "indexed": false,
          "internalType": "contract CToken",
          "name": "cToken",
          "type": "address"
        },
        {
          "indexed": false,
          "internalType": "bool",
          "name": "force",
          "type": "bool"
        }
      ],
      "name": "MarketDelisted",
      "type": "event"
    },
    {
      "anonymous": false,
      "inputs": [
        {
          "indexed": false,
          "internalType": "contract CToken",
          "name": "cToken",
          "type": "address"
        },
        {
          "indexed": false,
          "internalType": "address",
          "name": "account",
          "type": "address"
        }
      ],
      "name": "MarketEntered",
      "type": "event"
    },
    {
      "anonymous": false,
      "inputs": [
        {
          "indexed": false,
          "internalType": "contract CToken",
          "name": "cToken",
          "type": "address"
        },
        {
          "indexed": false,
          "internalType": "address",
          "name": "account",
          "type": "address"
        }
      ],
      "name": "MarketExited",
      "type": "event"
    },
    {
      "anonymous": false,
      "inputs": [
        {
          "indexed": false,
          "internalType": "contract CToken",
          "name": "cToken",
          "type": "address"
        }
      ],
      "name": "MarketListed",
      "type": "event"
    },
    {
      "anonymous": false,
      "inputs": [
        {
          "indexed": true,
          "internalType": "contract CToken",
          "name": "cToken",
          "type": "address"
        },
        {
          "indexed": false,
          "internalType": "uint256",
          "name": "newBorrowCap",
          "type": "uint256"
        }
      ],
      "name": "NewBorrowCap",
      "type": "event"
    },
    {
      "anonymous": false,
      "inputs": [
        {
          "indexed": false,
          "internalType": "contract CToken",
          "name": "cToken",
          "type": "address"
        },
        {
          "indexed": false,
          "internalType": "enum ComptrollerV1Storage.Version",
          "name": "oldVersion",
          "type": "uint8"
        },
        {
          "indexed": false,
          "internalType": "enum ComptrollerV1Storage.Version",
          "name": "newVersion",
          "type": "uint8"
        }
      ],
      "name": "NewCTokenVersion",
      "type": "event"
    },
    {
      "anonymous": false,
      "inputs": [
        {
          "indexed": false,
          "internalType": "uint256",
          "name": "oldCloseFactorMantissa",
          "type": "uint256"
        },
        {
          "indexed": false,
          "internalType": "uint256",
          "name": "newCloseFactorMantissa",
          "type": "uint256"
        }
      ],
      "name": "NewCloseFactor",
      "type": "event"
    },
    {
      "anonymous": false,
      "inputs": [
        {
          "indexed": false,
          "internalType": "contract CToken",
          "name": "cToken",
          "type": "address"
        },
        {
          "indexed": false,
          "internalType": "uint256",
          "name": "oldCollateralFactorMantissa",
          "type": "uint256"
        },
        {
          "indexed": false,
          "internalType": "uint256",
          "name": "newCollateralFactorMantissa",
          "type": "uint256"
        }
      ],
      "name": "NewCollateralFactor",
      "type": "event"
    },
    {
      "anonymous": false,
      "inputs": [
        {
          "indexed": false,
          "internalType": "address",
          "name": "oldCreditLimitManager",
          "type": "address"
        },
        {
          "indexed": false,
          "internalType": "address",
          "name": "newCreditLimitManager",
          "type": "address"
        }
      ],
      "name": "NewCreditLimitManager",
      "type": "event"
    },
    {
      "anonymous": false,
      "inputs": [
        {
          "indexed": false,
          "internalType": "uint256",
          "name": "oldLiquidationIncentiveMantissa",
          "type": "uint256"
        },
        {
          "indexed": false,
          "internalType": "uint256",
          "name": "newLiquidationIncentiveMantissa",
          "type": "uint256"
        }
      ],
      "name": "NewLiquidationIncentive",
      "type": "event"
    },
    {
      "anonymous": false,
      "inputs": [
        {
          "indexed": false,
          "internalType": "address",
          "name": "oldLiquidityMining",
          "type": "address"
        },
        {
          "indexed": false,
          "internalType": "address",
          "name": "newLiquidityMining",
          "type": "address"
        }
      ],
      "name": "NewLiquidityMining",
      "type": "event"
    },
    {
      "anonymous": false,
      "inputs": [
        {
          "indexed": false,
          "internalType": "address",
          "name": "oldPauseGuardian",
          "type": "address"
        },
        {
          "indexed": false,
          "internalType": "address",
          "name": "newPauseGuardian",
          "type": "address"
        }
      ],
      "name": "NewPauseGuardian",
      "type": "event"
    },
    {
      "anonymous": false,
      "inputs": [
        {
          "indexed": false,
          "internalType": "contract PriceOracle",
          "name": "oldPriceOracle",
          "type": "address"
        },
        {
          "indexed": false,
          "internalType": "contract PriceOracle",
          "name": "newPriceOracle",
          "type": "address"
        }
      ],
      "name": "NewPriceOracle",
      "type": "event"
    },
    {
      "anonymous": false,
      "inputs": [
        {
          "indexed": true,
          "internalType": "contract CToken",
          "name": "cToken",
          "type": "address"
        },
        {
          "indexed": false,
          "internalType": "uint256",
          "name": "newSupplyCap",
          "type": "uint256"
        }
      ],
      "name": "NewSupplyCap",
      "type": "event"
    },
    {
      "constant": false,
      "inputs": [
        {
          "internalType": "contract Unitroller",
          "name": "unitroller",
          "type": "address"
        }
      ],
      "name": "_become",
      "outputs": [],
      "payable": false,
      "stateMutability": "nonpayable",
      "type": "function"
    },
    {
      "constant": true,
      "inputs": [],
      "name": "_borrowGuardianPaused",
      "outputs": [
        {
          "internalType": "bool",
          "name": "",
          "type": "bool"
        }
      ],
      "payable": false,
      "stateMutability": "view",
      "type": "function"
    },
    {
      "constant": false,
      "inputs": [
        {
          "internalType": "contract CToken",
          "name": "cToken",
          "type": "address"
        },
        {
          "internalType": "bool",
          "name": "force",
          "type": "bool"
        }
      ],
      "name": "_delistMarket",
      "outputs": [],
      "payable": false,
      "stateMutability": "nonpayable",
      "type": "function"
    },
    {
      "constant": true,
      "inputs": [],
      "name": "_mintGuardianPaused",
      "outputs": [
        {
          "internalType": "bool",
          "name": "",
          "type": "bool"
        }
      ],
      "payable": false,
      "stateMutability": "view",
      "type": "function"
    },
    {
      "constant": false,
      "inputs": [
        {
          "internalType": "contract CToken",
          "name": "cToken",
          "type": "address"
        },
        {
          "internalType": "bool",
          "name": "state",
          "type": "bool"
        }
      ],
      "name": "_setBorrowPaused",
      "outputs": [
        {
          "internalType": "bool",
          "name": "",
          "type": "bool"
        }
      ],
      "payable": false,
      "stateMutability": "nonpayable",
      "type": "function"
    },
    {
      "constant": false,
      "inputs": [
        {
          "internalType": "uint256",
          "name": "newCloseFactorMantissa",
          "type": "uint256"
        }
      ],
      "name": "_setCloseFactor",
      "outputs": [
        {
          "internalType": "uint256",
          "name": "",
          "type": "uint256"
        }
      ],
      "payable": false,
      "stateMutability": "nonpayable",
      "type": "function"
    },
    {
      "constant": false,
      "inputs": [
        {
          "internalType": "contract CToken",
          "name": "cToken",
          "type": "address"
        },
        {
          "internalType": "uint256",
          "name": "newCollateralFactorMantissa",
          "type": "uint256"
        }
      ],
      "name": "_setCollateralFactor",
      "outputs": [
        {
          "internalType": "uint256",
          "name": "",
          "type": "uint256"
        }
      ],
      "payable": false,
      "stateMutability": "nonpayable",
      "type": "function"
    },
    {
      "constant": false,
      "inputs": [
        {
          "internalType": "address",
          "name": "protocol",
          "type": "address"
        },
        {
          "internalType": "address",
          "name": "market",
          "type": "address"
        },
        {
          "internalType": "uint256",
          "name": "creditLimit",
          "type": "uint256"
        }
      ],
      "name": "_setCreditLimit",
      "outputs": [],
      "payable": false,
      "stateMutability": "nonpayable",
      "type": "function"
    },
    {
      "constant": false,
      "inputs": [
        {
          "internalType": "address",
          "name": "newCreditLimitManager",
          "type": "address"
        }
      ],
      "name": "_setCreditLimitManager",
      "outputs": [],
      "payable": false,
      "stateMutability": "nonpayable",
      "type": "function"
    },
    {
      "constant": false,
      "inputs": [
        {
          "internalType": "contract CToken",
          "name": "cToken",
          "type": "address"
        },
        {
          "internalType": "bool",
          "name": "state",
          "type": "bool"
        }
      ],
      "name": "_setFlashloanPaused",
      "outputs": [
        {
          "internalType": "bool",
          "name": "",
          "type": "bool"
        }
      ],
      "payable": false,
      "stateMutability": "nonpayable",
      "type": "function"
    },
    {
      "constant": false,
      "inputs": [
        {
          "internalType": "uint256",
          "name": "newLiquidationIncentiveMantissa",
          "type": "uint256"
        }
      ],
      "name": "_setLiquidationIncentive",
      "outputs": [
        {
          "internalType": "uint256",
          "name": "",
          "type": "uint256"
        }
      ],
      "payable": false,
      "stateMutability": "nonpayable",
      "type": "function"
    },
    {
      "constant": false,
      "inputs": [
        {
          "internalType": "address",
          "name": "newLiquidityMining",
          "type": "address"
        }
      ],
      "name": "_setLiquidityMining",
      "outputs": [],
      "payable": false,
      "stateMutability": "nonpayable",
      "type": "function"
    },
    {
      "constant": false,
      "inputs": [
        {
          "internalType": "contract CToken[]",
          "name": "cTokens",
          "type": "address[]"
        },
        {
          "internalType": "uint256[]",
          "name": "newBorrowCaps",
          "type": "uint256[]"
        }
      ],
      "name": "_setMarketBorrowCaps",
      "outputs": [],
      "payable": false,
      "stateMutability": "nonpayable",
      "type": "function"
    },
    {
      "constant": false,
      "inputs": [
        {
          "internalType": "contract CToken[]",
          "name": "cTokens",
          "type": "address[]"
        },
        {
          "internalType": "uint256[]",
          "name": "newSupplyCaps",
          "type": "uint256[]"
        }
      ],
      "name": "_setMarketSupplyCaps",
      "outputs": [],
      "payable": false,
      "stateMutability": "nonpayable",
      "type": "function"
    },
    {
      "constant": false,
      "inputs": [
        {
          "internalType": "contract CToken",
          "name": "cToken",
          "type": "address"
        },
        {
          "internalType": "bool",
          "name": "state",
          "type": "bool"
        }
      ],
      "name": "_setMintPaused",
      "outputs": [
        {
          "internalType": "bool",
          "name": "",
          "type": "bool"
        }
      ],
      "payable": false,
      "stateMutability": "nonpayable",
      "type": "function"
    },
    {
      "constant": false,
      "inputs": [
        {
          "internalType": "address",
          "name": "newPauseGuardian",
          "type": "address"
        }
      ],
      "name": "_setPauseGuardian",
      "outputs": [
        {
          "internalType": "uint256",
          "name": "",
          "type": "uint256"
        }
      ],
      "payable": false,
      "stateMutability": "nonpayable",
      "type": "function"
    },
    {
      "constant": false,
      "inputs": [
        {
          "internalType": "contract PriceOracle",
          "name": "newOracle",
          "type": "address"
        }
      ],
      "name": "_setPriceOracle",
      "outputs": [
        {
          "internalType": "uint256",
          "name": "",
          "type": "uint256"
        }
      ],
      "payable": false,
      "stateMutability": "nonpayable",
      "type": "function"
    },
    {
      "constant": false,
      "inputs": [
        {
          "internalType": "bool",
          "name": "state",
          "type": "bool"
        }
      ],
      "name": "_setSeizePaused",
      "outputs": [
        {
          "internalType": "bool",
          "name": "",
          "type": "bool"
        }
      ],
      "payable": false,
      "stateMutability": "nonpayable",
      "type": "function"
    },
    {
      "constant": false,
      "inputs": [
        {
          "internalType": "bool",
          "name": "state",
          "type": "bool"
        }
      ],
      "name": "_setTransferPaused",
      "outputs": [
        {
          "internalType": "bool",
          "name": "",
          "type": "bool"
        }
      ],
      "payable": false,
      "stateMutability": "nonpayable",
      "type": "function"
    },
    {
      "constant": false,
      "inputs": [
        {
          "internalType": "contract CToken",
          "name": "cToken",
          "type": "address"
        },
        {
          "internalType": "enum ComptrollerV1Storage.Version",
          "name": "version",
          "type": "uint8"
        }
      ],
      "name": "_supportMarket",
      "outputs": [
        {
          "internalType": "uint256",
          "name": "",
          "type": "uint256"
        }
      ],
      "payable": false,
      "stateMutability": "nonpayable",
      "type": "function"
    },
    {
      "constant": true,
      "inputs": [
        {
          "internalType": "address",
          "name": "",
          "type": "address"
        },
        {
          "internalType": "uint256",
          "name": "",
          "type": "uint256"
        }
      ],
      "name": "accountAssets",
      "outputs": [
        {
          "internalType": "contract CToken",
          "name": "",
          "type": "address"
        }
      ],
      "payable": false,
      "stateMutability": "view",
      "type": "function"
    },
    {
      "constant": true,
      "inputs": [],
      "name": "admin",
      "outputs": [
        {
          "internalType": "address",
          "name": "",
          "type": "address"
        }
      ],
      "payable": false,
      "stateMutability": "view",
      "type": "function"
    },
    {
      "constant": true,
      "inputs": [
        {
          "internalType": "uint256",
          "name": "",
          "type": "uint256"
        }
      ],
      "name": "allMarkets",
      "outputs": [
        {
          "internalType": "contract CToken",
          "name": "",
          "type": "address"
        }
      ],
      "payable": false,
      "stateMutability": "view",
      "type": "function"
    },
    {
      "constant": false,
      "inputs": [
        {
          "internalType": "address",
          "name": "cToken",
          "type": "address"
        },
        {
          "internalType": "address",
          "name": "borrower",
          "type": "address"
        },
        {
          "internalType": "uint256",
          "name": "borrowAmount",
          "type": "uint256"
        }
      ],
      "name": "borrowAllowed",
      "outputs": [
        {
          "internalType": "uint256",
          "name": "",
          "type": "uint256"
        }
      ],
      "payable": false,
      "stateMutability": "nonpayable",
      "type": "function"
    },
    {
      "constant": true,
      "inputs": [],
      "name": "borrowCapGuardian",
      "outputs": [
        {
          "internalType": "address",
          "name": "",
          "type": "address"
        }
      ],
      "payable": false,
      "stateMutability": "view",
      "type": "function"
    },
    {
      "constant": true,
      "inputs": [
        {
          "internalType": "address",
          "name": "",
          "type": "address"
        }
      ],
      "name": "borrowCaps",
      "outputs": [
        {
          "internalType": "uint256",
          "name": "",
          "type": "uint256"
        }
      ],
      "payable": false,
      "stateMutability": "view",
      "type": "function"
    },
    {
      "constant": true,
      "inputs": [
        {
          "internalType": "address",
          "name": "",
          "type": "address"
        }
      ],
      "name": "borrowGuardianPaused",
      "outputs": [
        {
          "internalType": "bool",
          "name": "",
          "type": "bool"
        }
      ],
      "payable": false,
      "stateMutability": "view",
      "type": "function"
    },
    {
      "constant": false,
      "inputs": [
        {
          "internalType": "address",
          "name": "cToken",
          "type": "address"
        },
        {
          "internalType": "address",
          "name": "borrower",
          "type": "address"
        },
        {
          "internalType": "uint256",
          "name": "borrowAmount",
          "type": "uint256"
        }
      ],
      "name": "borrowVerify",
      "outputs": [],
      "payable": false,
      "stateMutability": "nonpayable",
      "type": "function"
    },
    {
      "constant": true,
      "inputs": [
        {
          "internalType": "address",
          "name": "account",
          "type": "address"
        },
        {
          "internalType": "contract CToken",
          "name": "cToken",
          "type": "address"
        }
      ],
      "name": "checkMembership",
      "outputs": [
        {
          "internalType": "bool",
          "name": "",
          "type": "bool"
        }
      ],
      "payable": false,
      "stateMutability": "view",
      "type": "function"
    },
    {
      "constant": true,
      "inputs": [],
      "name": "closeFactorMantissa",
      "outputs": [
        {
          "internalType": "uint256",
          "name": "",
          "type": "uint256"
        }
      ],
      "payable": false,
      "stateMutability": "view",
      "type": "function"
    },
    {
      "constant": true,
      "inputs": [],
      "name": "comptrollerImplementation",
      "outputs": [
        {
          "internalType": "address",
          "name": "",
          "type": "address"
        }
      ],
      "payable": false,
      "stateMutability": "view",
      "type": "function"
    },
    {
      "constant": true,
      "inputs": [],
      "name": "creditLimitManager",
      "outputs": [
        {
          "internalType": "address",
          "name": "",
          "type": "address"
        }
      ],
      "payable": false,
      "stateMutability": "view",
      "type": "function"
    },
    {
      "constant": true,
      "inputs": [
        {
          "internalType": "address",
          "name": "",
          "type": "address"
        },
        {
          "internalType": "address",
          "name": "",
          "type": "address"
        }
      ],
      "name": "creditLimits",
      "outputs": [
        {
          "internalType": "uint256",
          "name": "",
          "type": "uint256"
        }
      ],
      "payable": false,
      "stateMutability": "view",
      "type": "function"
    },
    {
      "constant": false,
      "inputs": [
        {
          "internalType": "address[]",
          "name": "cTokens",
          "type": "address[]"
        }
      ],
      "name": "enterMarkets",
      "outputs": [
        {
          "internalType": "uint256[]",
          "name": "",
          "type": "uint256[]"
        }
      ],
      "payable": false,
      "stateMutability": "nonpayable",
      "type": "function"
    },
    {
      "constant": false,
      "inputs": [
        {
          "internalType": "address",
          "name": "cTokenAddress",
          "type": "address"
        }
      ],
      "name": "exitMarket",
      "outputs": [
        {
          "internalType": "uint256",
          "name": "",
          "type": "uint256"
        }
      ],
      "payable": false,
      "stateMutability": "nonpayable",
      "type": "function"
    },
    {
      "constant": true,
      "inputs": [
        {
          "internalType": "address",
          "name": "cToken",
          "type": "address"
        },
        {
          "internalType": "address",
          "name": "receiver",
          "type": "address"
        },
        {
          "internalType": "uint256",
          "name": "amount",
          "type": "uint256"
        },
        {
          "internalType": "bytes",
          "name": "params",
          "type": "bytes"
        }
      ],
      "name": "flashloanAllowed",
      "outputs": [
        {
          "internalType": "bool",
          "name": "",
          "type": "bool"
        }
      ],
      "payable": false,
      "stateMutability": "view",
      "type": "function"
    },
    {
      "constant": true,
      "inputs": [
        {
          "internalType": "address",
          "name": "",
          "type": "address"
        }
      ],
      "name": "flashloanGuardianPaused",
      "outputs": [
        {
          "internalType": "bool",
          "name": "",
          "type": "bool"
        }
      ],
      "payable": false,
      "stateMutability": "view",
      "type": "function"
    },
    {
      "constant": true,
      "inputs": [
        {
          "internalType": "address",
          "name": "account",
          "type": "address"
        }
      ],
      "name": "getAccountLiquidity",
      "outputs": [
        {
          "internalType": "uint256",
          "name": "",
          "type": "uint256"
        },
        {
          "internalType": "uint256",
          "name": "",
          "type": "uint256"
        },
        {
          "internalType": "uint256",
          "name": "",
          "type": "uint256"
        }
      ],
      "payable": false,
      "stateMutability": "view",
      "type": "function"
    },
    {
      "constant": true,
      "inputs": [],
      "name": "getAllMarkets",
      "outputs": [
        {
          "internalType": "contract CToken[]",
          "name": "",
          "type": "address[]"
        }
      ],
      "payable": false,
      "stateMutability": "view",
      "type": "function"
    },
    {
      "constant": true,
      "inputs": [
        {
          "internalType": "address",
          "name": "account",
          "type": "address"
        }
      ],
      "name": "getAssetsIn",
      "outputs": [
        {
          "internalType": "contract CToken[]",
          "name": "",
          "type": "address[]"
        }
      ],
      "payable": false,
      "stateMutability": "view",
      "type": "function"
    },
    {
      "constant": true,
      "inputs": [],
      "name": "getBlockNumber",
      "outputs": [
        {
          "internalType": "uint256",
          "name": "",
          "type": "uint256"
        }
      ],
      "payable": false,
      "stateMutability": "view",
      "type": "function"
    },
    {
      "constant": true,
      "inputs": [
        {
          "internalType": "address",
          "name": "account",
          "type": "address"
        },
        {
          "internalType": "address",
          "name": "cTokenModify",
          "type": "address"
        },
        {
          "internalType": "uint256",
          "name": "redeemTokens",
          "type": "uint256"
        },
        {
          "internalType": "uint256",
          "name": "borrowAmount",
          "type": "uint256"
        }
      ],
      "name": "getHypotheticalAccountLiquidity",
      "outputs": [
        {
          "internalType": "uint256",
          "name": "",
          "type": "uint256"
        },
        {
          "internalType": "uint256",
          "name": "",
          "type": "uint256"
        },
        {
          "internalType": "uint256",
          "name": "",
          "type": "uint256"
        }
      ],
      "payable": false,
      "stateMutability": "view",
      "type": "function"
    },
    {
      "constant": true,
      "inputs": [],
      "name": "isComptroller",
      "outputs": [
        {
          "internalType": "bool",
          "name": "",
          "type": "bool"
        }
      ],
      "payable": false,
      "stateMutability": "view",
      "type": "function"
    },
    {
      "constant": true,
      "inputs": [
        {
          "internalType": "address",
          "name": "account",
          "type": "address"
        },
        {
          "internalType": "address",
          "name": "cToken",
          "type": "address"
        }
      ],
      "name": "isCreditAccount",
      "outputs": [
        {
          "internalType": "bool",
          "name": "",
          "type": "bool"
        }
      ],
      "payable": false,
      "stateMutability": "view",
      "type": "function"
    },
    {
      "constant": true,
      "inputs": [
        {
          "internalType": "address",
          "name": "",
          "type": "address"
        }
      ],
      "name": "isMarketDelisted",
      "outputs": [
        {
          "internalType": "bool",
          "name": "",
          "type": "bool"
        }
      ],
      "payable": false,
      "stateMutability": "view",
      "type": "function"
    },
    {
      "constant": true,
      "inputs": [
        {
          "internalType": "address",
          "name": "cTokenAddress",
          "type": "address"
        }
      ],
      "name": "isMarketListed",
      "outputs": [
        {
          "internalType": "bool",
          "name": "",
          "type": "bool"
        }
      ],
      "payable": false,
      "stateMutability": "view",
      "type": "function"
    },
    {
      "constant": true,
      "inputs": [
        {
          "internalType": "address",
          "name": "cTokenAddress",
          "type": "address"
        }
      ],
      "name": "isMarketListedOrDelisted",
      "outputs": [
        {
          "internalType": "bool",
          "name": "",
          "type": "bool"
        }
      ],
      "payable": false,
      "stateMutability": "view",
      "type": "function"
    },
    {
      "constant": false,
      "inputs": [
        {
          "internalType": "address",
          "name": "cTokenBorrowed",
          "type": "address"
        },
        {
          "internalType": "address",
          "name": "cTokenCollateral",
          "type": "address"
        },
        {
          "internalType": "address",
          "name": "liquidator",
          "type": "address"
        },
        {
          "internalType": "address",
          "name": "borrower",
          "type": "address"
        },
        {
          "internalType": "uint256",
          "name": "repayAmount",
          "type": "uint256"
        }
      ],
      "name": "liquidateBorrowAllowed",
      "outputs": [
        {
          "internalType": "uint256",
          "name": "",
          "type": "uint256"
        }
      ],
      "payable": false,
      "stateMutability": "nonpayable",
      "type": "function"
    },
    {
      "constant": false,
      "inputs": [
        {
          "internalType": "address",
          "name": "cTokenBorrowed",
          "type": "address"
        },
        {
          "internalType": "address",
          "name": "cTokenCollateral",
          "type": "address"
        },
        {
          "internalType": "address",
          "name": "liquidator",
          "type": "address"
        },
        {
          "internalType": "address",
          "name": "borrower",
          "type": "address"
        },
        {
          "internalType": "uint256",
          "name": "actualRepayAmount",
          "type": "uint256"
        },
        {
          "internalType": "uint256",
          "name": "seizeTokens",
          "type": "uint256"
        }
      ],
      "name": "liquidateBorrowVerify",
      "outputs": [],
      "payable": false,
      "stateMutability": "nonpayable",
      "type": "function"
    },
    {
      "constant": true,
      "inputs": [
        {
          "internalType": "address",
          "name": "cTokenBorrowed",
          "type": "address"
        },
        {
          "internalType": "address",
          "name": "cTokenCollateral",
          "type": "address"
        },
        {
          "internalType": "uint256",
          "name": "actualRepayAmount",
          "type": "uint256"
        }
      ],
      "name": "liquidateCalculateSeizeTokens",
      "outputs": [
        {
          "internalType": "uint256",
          "name": "",
          "type": "uint256"
        },
        {
          "internalType": "uint256",
          "name": "",
          "type": "uint256"
        }
      ],
      "payable": false,
      "stateMutability": "view",
      "type": "function"
    },
    {
      "constant": true,
      "inputs": [],
      "name": "liquidationIncentiveMantissa",
      "outputs": [
        {
          "internalType": "uint256",
          "name": "",
          "type": "uint256"
        }
      ],
      "payable": false,
      "stateMutability": "view",
      "type": "function"
    },
    {
      "constant": true,
      "inputs": [],
      "name": "liquidityMining",
      "outputs": [
        {
          "internalType": "address",
          "name": "",
          "type": "address"
        }
      ],
      "payable": false,
      "stateMutability": "view",
      "type": "function"
    },
    {
      "constant": true,
      "inputs": [
        {
          "internalType": "address",
          "name": "",
          "type": "address"
        }
      ],
      "name": "markets",
      "outputs": [
        {
          "internalType": "bool",
          "name": "isListed",
          "type": "bool"
        },
        {
          "internalType": "uint256",
          "name": "collateralFactorMantissa",
          "type": "uint256"
        },
        {
          "internalType": "enum ComptrollerV1Storage.Version",
          "name": "version",
          "type": "uint8"
        }
      ],
      "payable": false,
      "stateMutability": "view",
      "type": "function"
    },
    {
      "constant": false,
      "inputs": [
        {
          "internalType": "address",
          "name": "cToken",
          "type": "address"
        },
        {
          "internalType": "address",
          "name": "minter",
          "type": "address"
        },
        {
          "internalType": "uint256",
          "name": "mintAmount",
          "type": "uint256"
        }
      ],
      "name": "mintAllowed",
      "outputs": [
        {
          "internalType": "uint256",
          "name": "",
          "type": "uint256"
        }
      ],
      "payable": false,
      "stateMutability": "nonpayable",
      "type": "function"
    },
    {
      "constant": true,
      "inputs": [
        {
          "internalType": "address",
          "name": "",
          "type": "address"
        }
      ],
      "name": "mintGuardianPaused",
      "outputs": [
        {
          "internalType": "bool",
          "name": "",
          "type": "bool"
        }
      ],
      "payable": false,
      "stateMutability": "view",
      "type": "function"
    },
    {
      "constant": false,
      "inputs": [
        {
          "internalType": "address",
          "name": "cToken",
          "type": "address"
        },
        {
          "internalType": "address",
          "name": "minter",
          "type": "address"
        },
        {
          "internalType": "uint256",
          "name": "actualMintAmount",
          "type": "uint256"
        },
        {
          "internalType": "uint256",
          "name": "mintTokens",
          "type": "uint256"
        }
      ],
      "name": "mintVerify",
      "outputs": [],
      "payable": false,
      "stateMutability": "nonpayable",
      "type": "function"
    },
    {
      "constant": true,
      "inputs": [],
      "name": "oracle",
      "outputs": [
        {
          "internalType": "contract PriceOracle",
          "name": "",
          "type": "address"
        }
      ],
      "payable": false,
      "stateMutability": "view",
      "type": "function"
    },
    {
      "constant": true,
      "inputs": [],
      "name": "pauseGuardian",
      "outputs": [
        {
          "internalType": "address",
          "name": "",
          "type": "address"
        }
      ],
      "payable": false,
      "stateMutability": "view",
      "type": "function"
    },
    {
      "constant": true,
      "inputs": [],
      "name": "pendingAdmin",
      "outputs": [
        {
          "internalType": "address",
          "name": "",
          "type": "address"
        }
      ],
      "payable": false,
      "stateMutability": "view",
      "type": "function"
    },
    {
      "constant": true,
      "inputs": [],
      "name": "pendingComptrollerImplementation",
      "outputs": [
        {
          "internalType": "address",
          "name": "",
          "type": "address"
        }
      ],
      "payable": false,
      "stateMutability": "view",
      "type": "function"
    },
    {
      "constant": false,
      "inputs": [
        {
          "internalType": "address",
          "name": "cToken",
          "type": "address"
        },
        {
          "internalType": "address",
          "name": "redeemer",
          "type": "address"
        },
        {
          "internalType": "uint256",
          "name": "redeemTokens",
          "type": "uint256"
        }
      ],
      "name": "redeemAllowed",
      "outputs": [
        {
          "internalType": "uint256",
          "name": "",
          "type": "uint256"
        }
      ],
      "payable": false,
      "stateMutability": "nonpayable",
      "type": "function"
    },
    {
      "constant": false,
      "inputs": [
        {
          "internalType": "address",
          "name": "cToken",
          "type": "address"
        },
        {
          "internalType": "address",
          "name": "redeemer",
          "type": "address"
        },
        {
          "internalType": "uint256",
          "name": "redeemAmount",
          "type": "uint256"
        },
        {
          "internalType": "uint256",
          "name": "redeemTokens",
          "type": "uint256"
        }
      ],
      "name": "redeemVerify",
      "outputs": [],
      "payable": false,
      "stateMutability": "nonpayable",
      "type": "function"
    },
    {
      "constant": false,
      "inputs": [
        {
          "internalType": "address",
          "name": "cToken",
          "type": "address"
        },
        {
          "internalType": "address",
          "name": "payer",
          "type": "address"
        },
        {
          "internalType": "address",
          "name": "borrower",
          "type": "address"
        },
        {
          "internalType": "uint256",
          "name": "repayAmount",
          "type": "uint256"
        }
      ],
      "name": "repayBorrowAllowed",
      "outputs": [
        {
          "internalType": "uint256",
          "name": "",
          "type": "uint256"
        }
      ],
      "payable": false,
      "stateMutability": "nonpayable",
      "type": "function"
    },
    {
      "constant": false,
      "inputs": [
        {
          "internalType": "address",
          "name": "cToken",
          "type": "address"
        },
        {
          "internalType": "address",
          "name": "payer",
          "type": "address"
        },
        {
          "internalType": "address",
          "name": "borrower",
          "type": "address"
        },
        {
          "internalType": "uint256",
          "name": "actualRepayAmount",
          "type": "uint256"
        },
        {
          "internalType": "uint256",
          "name": "borrowerIndex",
          "type": "uint256"
        }
      ],
      "name": "repayBorrowVerify",
      "outputs": [],
      "payable": false,
      "stateMutability": "nonpayable",
      "type": "function"
    },
    {
      "constant": false,
      "inputs": [
        {
          "internalType": "address",
          "name": "cTokenCollateral",
          "type": "address"
        },
        {
          "internalType": "address",
          "name": "cTokenBorrowed",
          "type": "address"
        },
        {
          "internalType": "address",
          "name": "liquidator",
          "type": "address"
        },
        {
          "internalType": "address",
          "name": "borrower",
          "type": "address"
        },
        {
          "internalType": "uint256",
          "name": "seizeTokens",
          "type": "uint256"
        }
      ],
      "name": "seizeAllowed",
      "outputs": [
        {
          "internalType": "uint256",
          "name": "",
          "type": "uint256"
        }
      ],
      "payable": false,
      "stateMutability": "nonpayable",
      "type": "function"
    },
    {
      "constant": true,
      "inputs": [],
      "name": "seizeGuardianPaused",
      "outputs": [
        {
          "internalType": "bool",
          "name": "",
          "type": "bool"
        }
      ],
      "payable": false,
      "stateMutability": "view",
      "type": "function"
    },
    {
      "constant": false,
      "inputs": [
        {
          "internalType": "address",
          "name": "cTokenCollateral",
          "type": "address"
        },
        {
          "internalType": "address",
          "name": "cTokenBorrowed",
          "type": "address"
        },
        {
          "internalType": "address",
          "name": "liquidator",
          "type": "address"
        },
        {
          "internalType": "address",
          "name": "borrower",
          "type": "address"
        },
        {
          "internalType": "uint256",
          "name": "seizeTokens",
          "type": "uint256"
        }
      ],
      "name": "seizeVerify",
      "outputs": [],
      "payable": false,
      "stateMutability": "nonpayable",
      "type": "function"
    },
    {
      "constant": true,
      "inputs": [],
      "name": "supplyCapGuardian",
      "outputs": [
        {
          "internalType": "address",
          "name": "",
          "type": "address"
        }
      ],
      "payable": false,
      "stateMutability": "view",
      "type": "function"
    },
    {
      "constant": true,
      "inputs": [
        {
          "internalType": "address",
          "name": "",
          "type": "address"
        }
      ],
      "name": "supplyCaps",
      "outputs": [
        {
          "internalType": "uint256",
          "name": "",
          "type": "uint256"
        }
      ],
      "payable": false,
      "stateMutability": "view",
      "type": "function"
    },
    {
      "constant": false,
      "inputs": [
        {
          "internalType": "address",
          "name": "cToken",
          "type": "address"
        },
        {
          "internalType": "address",
          "name": "src",
          "type": "address"
        },
        {
          "internalType": "address",
          "name": "dst",
          "type": "address"
        },
        {
          "internalType": "uint256",
          "name": "transferTokens",
          "type": "uint256"
        }
      ],
      "name": "transferAllowed",
      "outputs": [
        {
          "internalType": "uint256",
          "name": "",
          "type": "uint256"
        }
      ],
      "payable": false,
      "stateMutability": "nonpayable",
      "type": "function"
    },
    {
      "constant": true,
      "inputs": [],
      "name": "transferGuardianPaused",
      "outputs": [
        {
          "internalType": "bool",
          "name": "",
          "type": "bool"
        }
      ],
      "payable": false,
      "stateMutability": "view",
      "type": "function"
    },
    {
      "constant": false,
      "inputs": [
        {
          "internalType": "address",
          "name": "cToken",
          "type": "address"
        },
        {
          "internalType": "address",
          "name": "src",
          "type": "address"
        },
        {
          "internalType": "address",
          "name": "dst",
          "type": "address"
        },
        {
          "internalType": "uint256",
          "name": "transferTokens",
          "type": "uint256"
        }
      ],
      "name": "transferVerify",
      "outputs": [],
      "payable": false,
      "stateMutability": "nonpayable",
      "type": "function"
    },
    {
      "constant": false,
      "inputs": [
        {
          "internalType": "address",
          "name": "cToken",
          "type": "address"
        },
        {
          "internalType": "enum ComptrollerV1Storage.Version",
          "name": "newVersion",
          "type": "uint8"
        }
      ],
      "name": "updateCTokenVersion",
      "outputs": [],
      "payable": false,
      "stateMutability": "nonpayable",
      "type": "function"
    }
  ],
  "transactionHash": "0xe22a95144d37c1c9865ff8c1e99e9779c5ca0d1e48e14d01cfe35f6638d62b5e",
  "args": [],
  "numDeployments": 1,
  "solcInputHash": "bae176eb1e516e80bbd526d6238ae713",
  "bytecode": "0x608060405234801561001057600080fd5b50600080546001600160a01b03191633179055615411806100326000396000f3fe608060405234801561001057600080fd5b50600436106104325760003560e01c80635f5af1aa11610236578063b1e1af241161013b578063da3d454c116100c3578063e875544611610087578063e875544614611108578063ea5d010414611110578063eabe7d9114611136578063ede4edd01461116c578063f851a4401461119257610432565b8063da3d454c1461106a578063dce15449146110a0578063dcfbc0c7146110cc578063e4028eee146110d4578063e6653f3d1461110057610432565b8063c488847b1161010a578063c488847b14610f53578063d02f735114610fa2578063d139114914610fe8578063d672d3e21461100e578063d84f6aeb1461103457610432565b8063b1e1af2414610e40578063bb82aa5e14610e6e578063bdcdc25814610e76578063c299823814610eb257610432565b806387f76303116101be578063a979f0c51161018d578063a979f0c514610d24578063abfceffc14610d2c578063ac0b0bb714610da2578063b0772d0b14610daa578063b1ab78e614610db257610432565b806387f7630314610c735780638e8f294b14610c7b5780638ebf636414610cd7578063929fe9a114610cf657610432565b80636d154ea5116102055780636d154ea514610bd15780636d35bf9114610bf7578063731f0c2b14610c3d5780637dc0d1d014610c6357806385b2d53514610c6b57610432565b80635f5af1aa14610a6b5780635fc7e71e14610a91578063607ef6c114610ad75780636a56947e14610b9557610432565b80633c94786f1161033c5780634ef4c3e1116102c457806352d84d1e1161029357806352d84d1e146109a657806355ee1fe1146109c35780635c778605146109e95780635e2e9a4414610a1f5780635ec88c7914610a4557610432565b80634ef4c3e1146108595780634fd42e171461088f57806351a485e4146108ac57806351dff9891461096a57610432565b806344e3de731161030b57806344e3de731461075657806347ef3b3b146107855780634a584432146107d15780634ada90af146107f75780634e79238f146107ff57610432565b80633c94786f146106e45780633d98a1e5146106ec57806341c728b91461071257806342cbb15c1461074e57610432565b806324008a62116103bf578063317b0b771161038e578063317b0b771461060e57806336bdd0871461062b57806339e47ad21461065a5780633b3af257146106885780633bcf7ec1146106b657610432565b806324008a62146105a357806324a3d622146105df57806326782247146105e75780632d70db78146105ef57610432565b8063188f848311610406578063188f8483146104dd57806318c882a5146105035780631d504dc6146105315780631ededc911461055957806321af45691461059b57610432565b80627e3dd21461043757806302c3bcbb146104535780630445254d1461048b578063178de7eb146104b9575b600080fd5b61043f61119a565b604080519115158252519081900360200190f35b6104796004803603602081101561046957600080fd5b50356001600160a01b031661119f565b60408051918252519081900360200190f35b610479600480360360408110156104a157600080fd5b506001600160a01b03813581169160200135166111b1565b6104c16111ce565b604080516001600160a01b039092168252519081900360200190f35b61043f600480360360208110156104f357600080fd5b50356001600160a01b03166111dd565b61043f6004803603604081101561051957600080fd5b506001600160a01b0381351690602001351515611224565b6105576004803603602081101561054757600080fd5b50356001600160a01b03166113ba565b005b610557600480360360a081101561056f57600080fd5b506001600160a01b0381358116916020810135821691604082013516906060810135906080013561151e565b6104c1611525565b610479600480360360808110156105b957600080fd5b506001600160a01b03813581169160208101358216916040820135169060600135611534565b6104c16115e9565b6104c16115f8565b61043f6004803603602081101561060557600080fd5b50351515611607565b6104796004803603602081101561062457600080fd5b5035611740565b6104796004803603604081101561064157600080fd5b5080356001600160a01b0316906020013560ff166117b3565b6105576004803603604081101561067057600080fd5b506001600160a01b038135169060200135151561197d565b61043f6004803603604081101561069e57600080fd5b506001600160a01b0381358116916020013516611cfa565b61043f600480360360408110156106cc57600080fd5b506001600160a01b0381351690602001351515611d27565b61043f611eb8565b61043f6004803603602081101561070257600080fd5b50356001600160a01b0316611ec8565b6105576004803603608081101561072857600080fd5b506001600160a01b03813581169160208101359091169060408101359060600135611ee6565b610479611eec565b6105576004803603604081101561076c57600080fd5b5080356001600160a01b0316906020013560ff16611ef1565b610557600480360360c081101561079b57600080fd5b506001600160a01b0381358116916020810135821691604082013581169160608101359091169060808101359060a00135612000565b610479600480360360208110156107e757600080fd5b50356001600160a01b0316612008565b61047961201a565b61083b6004803603608081101561081557600080fd5b506001600160a01b03813581169160208101359091169060408101359060600135612020565b60408051938452602084019290925282820152519081900360600190f35b6104796004803603606081101561086f57600080fd5b506001600160a01b0381358116916020810135909116906040013561205a565b610479600480360360208110156108a557600080fd5b50356123a6565b610557600480360360408110156108c257600080fd5b810190602081018135600160201b8111156108dc57600080fd5b8201836020820111156108ee57600080fd5b803590602001918460208302840111600160201b8311171561090f57600080fd5b919390929091602081019035600160201b81111561092c57600080fd5b82018360208201111561093e57600080fd5b803590602001918460208302840111600160201b8311171561095f57600080fd5b50909250905061240f565b6105576004803603608081101561098057600080fd5b506001600160a01b038135811691602081013590911690604081013590606001356125ae565b6104c1600480360360208110156109bc57600080fd5b5035612602565b610479600480360360208110156109d957600080fd5b50356001600160a01b0316612629565b610557600480360360608110156109ff57600080fd5b506001600160a01b038135811691602081013590911690604001356126ae565b61055760048036036020811015610a3557600080fd5b50356001600160a01b03166126b3565b61083b60048036036020811015610a5b57600080fd5b50356001600160a01b0316612761565b61047960048036036020811015610a8157600080fd5b50356001600160a01b0316612796565b610479600480360360a0811015610aa757600080fd5b506001600160a01b038135811691602081013582169160408201358116916060810135909116906080013561281a565b61055760048036036040811015610aed57600080fd5b810190602081018135600160201b811115610b0757600080fd5b820183602082011115610b1957600080fd5b803590602001918460208302840111600160201b83111715610b3a57600080fd5b919390929091602081019035600160201b811115610b5757600080fd5b820183602082011115610b6957600080fd5b803590602001918460208302840111600160201b83111715610b8a57600080fd5b509092509050612a5d565b61055760048036036080811015610bab57600080fd5b506001600160a01b03813581169160208101358216916040820135169060600135611ee6565b61043f60048036036020811015610be757600080fd5b50356001600160a01b0316612bf3565b610557600480360360a0811015610c0d57600080fd5b506001600160a01b038135811691602081013582169160408201358116916060810135909116906080013561151e565b61043f60048036036020811015610c5357600080fd5b50356001600160a01b0316612c08565b6104c1612c1d565b6104c1612c2c565b61043f612c3b565b610ca160048036036020811015610c9157600080fd5b50356001600160a01b0316612c4b565b6040518084151515158152602001838152602001826002811115610cc157fe5b60ff168152602001935050505060405180910390f35b61043f60048036036020811015610ced57600080fd5b50351515612c71565b61043f60048036036040811015610d0c57600080fd5b506001600160a01b0381358116916020013516612dad565b6104c1612de0565b610d5260048036036020811015610d4257600080fd5b50356001600160a01b0316612def565b60408051602080825283518183015283519192839290830191858101910280838360005b83811015610d8e578181015183820152602001610d76565b505050509050019250505060405180910390f35b61043f612e78565b610d52612e88565b61043f60048036036080811015610dc857600080fd5b6001600160a01b03823581169260208101359091169160408201359190810190608081016060820135600160201b811115610e0257600080fd5b820183602082011115610e1457600080fd5b803590602001918460018302840111600160201b83111715610e3557600080fd5b509092509050612eea565b61043f60048036036040811015610e5657600080fd5b506001600160a01b0381351690602001351515612f0d565b6104c16130a3565b61047960048036036080811015610e8c57600080fd5b506001600160a01b038135811691602081013582169160408201351690606001356130b2565b610d5260048036036020811015610ec857600080fd5b810190602081018135600160201b811115610ee257600080fd5b820183602082011115610ef457600080fd5b803590602001918460208302840111600160201b83111715610f1557600080fd5b91908080602002602001604051908101604052809392919081815260200183836020028082843760009201919091525092955061315a945050505050565b610f8960048036036060811015610f6957600080fd5b506001600160a01b038135811691602081013590911690604001356131f1565b6040805192835260208301919091528051918290030190f35b610479600480360360a0811015610fb857600080fd5b506001600160a01b0381358116916020810135821691604082013581169160608101359091169060800135613447565b61043f60048036036020811015610ffe57600080fd5b50356001600160a01b0316613684565b61043f6004803603602081101561102457600080fd5b50356001600160a01b0316613699565b6105576004803603606081101561104a57600080fd5b506001600160a01b038135811691602081013590911690604001356136ae565b6104796004803603606081101561108057600080fd5b506001600160a01b0381358116916020810135909116906040013561386c565b6104c1600480360360408110156110b657600080fd5b506001600160a01b038135169060200135613e0f565b6104c1613e44565b610479600480360360408110156110ea57600080fd5b506001600160a01b038135169060200135613e53565b61043f614003565b610479614013565b6105576004803603602081101561112657600080fd5b50356001600160a01b0316614019565b6104796004803603606081101561114c57600080fd5b506001600160a01b03813581169160208101359091169060400135614188565b6104796004803603602081101561118257600080fd5b50356001600160a01b031661419d565b6104c1614592565b600181565b60116020526000908152604090205481565b601260209081526000928352604080842090915290825290205481565b6015546001600160a01b031681565b6001600160a01b03811660009081526008602052604081205460ff168061121c57506001600160a01b03821660009081526014602052604090205460ff165b90505b919050565b600061122f83611ec8565b61126e576040805162461bcd60e51b815260206004820152601160248201526000805160206152f9833981519152604482015290519081900360640190fd5b6009546001600160a01b031633148061129157506000546001600160a01b031633145b6112db576040805162461bcd60e51b8152602060048201526016602482015275677561726469616e206f722061646d696e206f6e6c7960501b604482015290519081900360640190fd5b6000546001600160a01b03163314806112f657506001821515145b611334576040805162461bcd60e51b815260206004820152600a60248201526961646d696e206f6e6c7960b01b604482015290519081900360640190fd5b6001600160a01b0383166000818152600b6020908152604091829020805486151560ff199091168117909155825193845283830152606090830181905260069083015265426f72726f7760d01b6080830152517f71aec636243f9709bb0007ae15e9afb8150ab01716d75fd7573be5cc096e03b09181900360a00190a150805b92915050565b806001600160a01b031663f851a4406040518163ffffffff1660e01b815260040160206040518083038186803b1580156113f357600080fd5b505afa158015611407573d6000803e3d6000fd5b505050506040513d602081101561141d57600080fd5b50516001600160a01b03163314611473576040805162461bcd60e51b8152602060048201526015602482015274756e6974726f6c6c65722061646d696e206f6e6c7960581b604482015290519081900360640190fd5b806001600160a01b031663c1e803346040518163ffffffff1660e01b8152600401602060405180830381600087803b1580156114ae57600080fd5b505af11580156114c2573d6000803e3d6000fd5b505050506040513d60208110156114d857600080fd5b50511561151b576040805162461bcd60e51b815260206004820152600c60248201526b1d5b985d5d1a1bdc9a5e995960a21b604482015290519081900360640190fd5b50565b5050505050565b600e546001600160a01b031681565b600061153f856111dd565b61157e576040805162461bcd60e51b815260206004820152601160248201526000805160206152f9833981519152604482015290519081900360640190fd5b6115888386611cfa565b156115dd57836001600160a01b0316836001600160a01b0316146115dd5760405162461bcd60e51b81526004018080602001828103825260288152602001806153936028913960400191505060405180910390fd5b60005b95945050505050565b6009546001600160a01b031681565b6001546001600160a01b031681565b6009546000906001600160a01b031633148061162d57506000546001600160a01b031633145b611677576040805162461bcd60e51b8152602060048201526016602482015275677561726469616e206f722061646d696e206f6e6c7960501b604482015290519081900360640190fd5b6000546001600160a01b031633148061169257506001821515145b6116d0576040805162461bcd60e51b815260206004820152600a60248201526961646d696e206f6e6c7960b01b604482015290519081900360640190fd5b60098054831515600160b81b810260ff60b81b1990921691909117909155604080516020810192909252808252600582820152645365697a6560d81b6060830152517fef159d9a32b2472e32b098f954f3ce62d232939f1c207070b584df1814de2de09181900360800190a15090565b600080546001600160a01b031633146117665761175f600160046145a1565b905061121f565b6005805490839055604080518281526020810185905281517f3b9670cf975d26958e754b57098eaa2ac914d8d2a31b83257997b9f346110fd9929181900390910190a160005b9392505050565b600080546001600160a01b03163314611800576040805162461bcd60e51b815260206004820152600a60248201526961646d696e206f6e6c7960b01b604482015290519081900360640190fd5b611809836111dd565b156118455760405162461bcd60e51b81526004018080602001828103825260218152602001806153726021913960400191505060405180910390fd5b826001600160a01b031663fe9c44ae6040518163ffffffff1660e01b815260040160206040518083038186803b15801561187e57600080fd5b505afa158015611892573d6000803e3d6000fd5b505050506040513d60208110156118a857600080fd5b50506040805160608101825260018152600060208201529081018360028111156118ce57fe5b90526001600160a01b0384166000908152600860209081526040918290208351815490151560ff199182161782559184015160018083019190915592840151600382018054929491939092169083600281111561192757fe5b021790555090505061193883614607565b604080516001600160a01b038516815290517fcf583bb0c569eb967f806b11601c4cb93c10310485c67add5f8362c2f212321f9181900360200190a160009392505050565b6000546001600160a01b031633146119c9576040805162461bcd60e51b815260206004820152600a60248201526961646d696e206f6e6c7960b01b604482015290519081900360640190fd5b6001600160a01b03821660009081526008602052604090206001015415611a2f576040805162461bcd60e51b81526020600482015260156024820152741b585c9ad95d081a185cc818dbdb1b185d195c985b605a1b604482015290519081900360640190fd5b6001600160a01b0382166000908152600a602052604090205460ff168015611a6f57506001600160a01b0382166000908152600b602052604090205460ff165b8015611a9357506001600160a01b0382166000908152600c602052604090205460ff165b611ad8576040805162461bcd60e51b81526020600482015260116024820152701b585c9ad95d081b9bdd081c185d5cd959607a1b604482015290519081900360640190fd5b80611b4d57611ae682611ec8565b611b25576040805162461bcd60e51b815260206004820152601160248201526000805160206152f9833981519152604482015290519081900360640190fd5b6001600160a01b0382166000908152601460205260409020805460ff19166001179055611b91565b611b56826111dd565b611b915760405162461bcd60e51b81526004018080602001828103825260228152602001806152d76022913960400191505060405180910390fd5b6001600160a01b0382166000908152600860205260408120805460ff199081168255600182018390556003909101805490911690555b600d54811015611cb057826001600160a01b0316600d8281548110611be857fe5b6000918252602090912001546001600160a01b03161415611ca857600d80546000198101908110611c1557fe5b600091825260209091200154600d80546001600160a01b039092169183908110611c3b57fe5b600091825260209091200180546001600160a01b0319166001600160a01b0392909216919091179055600d80546000198101908110611c7657fe5b600091825260209091200180546001600160a01b0319169055600d805490611ca29060001983016151f4565b50611cb0565b600101611bc7565b50604080516001600160a01b0384168152821515602082015281517f1fc2e72349204abf00cbc7494177aff8e597323c72b7f50dfe56055d0d8f6d9a929181900390910190a15050565b6001600160a01b039182166000908152601260209081526040808320939094168252919091522054151590565b6000611d3283611ec8565b611d71576040805162461bcd60e51b815260206004820152601160248201526000805160206152f9833981519152604482015290519081900360640190fd5b6009546001600160a01b0316331480611d9457506000546001600160a01b031633145b611dde576040805162461bcd60e51b8152602060048201526016602482015275677561726469616e206f722061646d696e206f6e6c7960501b604482015290519081900360640190fd5b6000546001600160a01b0316331480611df957506001821515145b611e37576040805162461bcd60e51b815260206004820152600a60248201526961646d696e206f6e6c7960b01b604482015290519081900360640190fd5b6001600160a01b0383166000818152600a6020908152604091829020805486151560ff199091168117909155825193845283830152606090830181905260049083015263135a5b9d60e21b6080830152517f71aec636243f9709bb0007ae15e9afb8150ab01716d75fd7573be5cc096e03b09181900360a00190a150919050565b600954600160a01b900460ff1681565b6001600160a01b031660009081526008602052604090205460ff1690565b50505050565b425b90565b336001600160a01b03831614611f3c576040805162461bcd60e51b815260206004820152600b60248201526a63546f6b656e206f6e6c7960a81b604482015290519081900360640190fd5b611f4582611ec8565b15611ffc576001600160a01b0382166000908152600860205260409020600301805460ff811691839160ff19166001836002811115611f8057fe5b02179055507f98dee10aa964316ab03f317c320c9dafb4f29c7f9de510cb35196f727a4d2f0383828460405180846001600160a01b03166001600160a01b03168152602001836002811115611fd157fe5b60ff168152602001826002811115611fe557fe5b60ff168152602001935050505060405180910390a1505b5050565b505050505050565b600f6020526000908152604090205481565b60065481565b6000806000806000806120358a8a8a8a6146e5565b92509250925082601181111561204757fe5b95509093509150505b9450945094915050565b6001600160a01b0383166000908152600a602052604081205460ff16156120b9576040805162461bcd60e51b815260206004820152600e60248201526d1b5a5b9d081a5cc81c185d5cd95960921b604482015290519081900360640190fd5b6120c38385611cfa565b15612115576040805162461bcd60e51b815260206004820152601a60248201527f637265646974206163636f756e742063616e6e6f74206d696e74000000000000604482015290519081900360640190fd5b61211e84611ec8565b61215d576040805162461bcd60e51b815260206004820152601160248201526000805160206152f9833981519152604482015290519081900360640190fd5b6001600160a01b03841660009081526011602052604090205480156115dd576000856001600160a01b0316633b1d21a26040518163ffffffff1660e01b815260040160206040518083038186803b1580156121b757600080fd5b505afa1580156121cb573d6000803e3d6000fd5b505050506040513d60208110156121e157600080fd5b5051604080516308f7a6e360e31b815290519192506000916001600160a01b038916916347bd3718916004808301926020929190829003018186803b15801561222957600080fd5b505afa15801561223d573d6000803e3d6000fd5b505050506040513d602081101561225357600080fd5b505160408051638f840ddd60e01b815290519192506000916001600160a01b038a1691638f840ddd916004808301926020929190829003018186803b15801561229b57600080fd5b505afa1580156122af573d6000803e3d6000fd5b505050506040513d60208110156122c557600080fd5b505190506000806122d7858585614abb565b909250905060008260038111156122ea57fe5b14612333576040805162461bcd60e51b81526020600482015260146024820152731d1bdd185b14dd5c1c1b1a595cc819985a5b195960621b604482015290519081900360640190fd5b600061233f828a614b07565b9050868110612395576040805162461bcd60e51b815260206004820152601960248201527f6d61726b657420737570706c7920636170207265616368656400000000000000604482015290519081900360640190fd5b505050505050600095945050505050565b600080546001600160a01b031633146123c55761175f6001600b6145a1565b6006805490839055604080518281526020810185905281517faeba5a6c40a8ac138134bff1aaa65debf25971188a58804bad717f82f0ec1316929181900390910190a160006117ac565b6000546001600160a01b031633148061243257506009546001600160a01b031633145b61247c576040805162461bcd60e51b815260206004820152601660248201527561646d696e206f7220677561726469616e206f6e6c7960501b604482015290519081900360640190fd5b8281811580159061248c57508082145b6124cd576040805162461bcd60e51b815260206004820152600d60248201526c1a5b9d985b1a59081a5b9c1d5d609a1b604482015290519081900360640190fd5b60005b828110156125a5578484828181106124e457fe5b90506020020135601160008989858181106124fb57fe5b905060200201356001600160a01b03166001600160a01b03166001600160a01b031681526020019081526020016000208190555086868281811061253b57fe5b905060200201356001600160a01b03166001600160a01b03167f9e0ad9cee10bdf36b7fbd38910c0bdff0f275ace679b45b922381c2723d676f886868481811061258157fe5b905060200201356040518082815260200191505060405180910390a26001016124d0565b50505050505050565b801580156125bc5750600082115b15611ee6576040805162461bcd60e51b815260206004820152601160248201527072656465656d546f6b656e73207a65726f60781b604482015290519081900360640190fd5b600d818154811061260f57fe5b6000918252602090912001546001600160a01b0316905081565b600080546001600160a01b031633146126485761175f600160106145a1565b600480546001600160a01b038481166001600160a01b0319831681179093556040805191909216808252602082019390935281517fd52b2b9b7e9ee655fcb95d2e5b9e0c9f69e7ef2b8e9d2d0ea78402d576d22e22929181900390910190a160006117ac565b505050565b6000546001600160a01b031633146126ff576040805162461bcd60e51b815260206004820152600a60248201526961646d696e206f6e6c7960b01b604482015290519081900360640190fd5b601580546001600160a01b038381166001600160a01b0319831617928390556040805192821680845293909116602083015280517fa4c457d40aa1c979a2194279d244db38b26ba51dac56dfa7f01446c0d00f8f659281900390910190a15050565b6000806000806000806127788760008060006146e5565b92509250925082601181111561278a57fe5b97919650945092505050565b600080546001600160a01b031633146127b55761175f600160136145a1565b600980546001600160a01b038481166001600160a01b0319831617928390556040805192821680845293909116602083015280517f0613b6ee6a04f0d09f390e4d9318894b9f6ac7fd83897cd8d18896ba579c401e9281900390910190a160006117ac565b60006128268387611cfa565b15612878576040805162461bcd60e51b815260206004820152601f60248201527f63616e6e6f74206c697175696461746520637265646974206163636f756e7400604482015290519081900360640190fd5b612881866111dd565b80156128915750612891856111dd565b6128d0576040805162461bcd60e51b815260206004820152601160248201526000805160206152f9833981519152604482015290519081900360640190fd5b6000806128dc85614b3d565b919350909150600090508260118111156128f257fe5b14612944576040805162461bcd60e51b815260206004820152601f60248201527f6661696c656420746f20676574206163636f756e74206c697175696469747900604482015290519081900360640190fd5b60008111612992576040805162461bcd60e51b81526020600482015260166024820152751a5b9cdd59999a58da595b9d081cda1bdc9d19985b1b60521b604482015290519081900360640190fd5b6000886001600160a01b03166395dd9193876040518263ffffffff1660e01b815260040180826001600160a01b03166001600160a01b0316815260200191505060206040518083038186803b1580156129ea57600080fd5b505afa1580156129fe573d6000803e3d6000fd5b505050506040513d6020811015612a1457600080fd5b505160408051602081019091526005548152909150600090612a369083614b5d565b905080861115612a4d5760119450505050506115e0565b5060009998505050505050505050565b6000546001600160a01b0316331480612a8057506009546001600160a01b031633145b612aca576040805162461bcd60e51b815260206004820152601660248201527561646d696e206f7220677561726469616e206f6e6c7960501b604482015290519081900360640190fd5b82818115801590612ada57508082145b612b1b576040805162461bcd60e51b815260206004820152600d60248201526c1a5b9d985b1a59081a5b9c1d5d609a1b604482015290519081900360640190fd5b60005b828110156125a557848482818110612b3257fe5b90506020020135600f6000898985818110612b4957fe5b905060200201356001600160a01b03166001600160a01b03166001600160a01b0316815260200190815260200160002081905550868682818110612b8957fe5b905060200201356001600160a01b03166001600160a01b03167f6f1951b2aad10f3fc81b86d91105b413a5b3f847a34bbc5ce1904201b14438f6868684818110612bcf57fe5b905060200201356040518082815260200191505060405180910390a2600101612b1e565b600b6020526000908152604090205460ff1681565b600a6020526000908152604090205460ff1681565b6004546001600160a01b031681565b6013546001600160a01b031681565b600954600160b01b900460ff1681565b60086020526000908152604090208054600182015460039092015460ff91821692911683565b6009546000906001600160a01b0316331480612c9757506000546001600160a01b031633145b612ce1576040805162461bcd60e51b8152602060048201526016602482015275677561726469616e206f722061646d696e206f6e6c7960501b604482015290519081900360640190fd5b6000546001600160a01b0316331480612cfc57506001821515145b612d3a576040805162461bcd60e51b815260206004820152600a60248201526961646d696e206f6e6c7960b01b604482015290519081900360640190fd5b60098054831515600160b01b810260ff60b01b1990921691909117909155604080516020810192909252808252600882820152672a3930b739b332b960c11b6060830152517fef159d9a32b2472e32b098f954f3ce62d232939f1c207070b584df1814de2de09181900360800190a15090565b6001600160a01b038082166000908152600860209081526040808320938616835260029093019052205460ff1692915050565b6010546001600160a01b031681565b60608060076000846001600160a01b03166001600160a01b03168152602001908152602001600020805480602002602001604051908101604052809291908181526020018280548015612e6b57602002820191906000526020600020905b81546001600160a01b03168152600190910190602001808311612e4d575b5093979650505050505050565b600954600160b81b900460ff1681565b6060600d805480602002602001604051908101604052809291908181526020018280548015612ee057602002820191906000526020600020905b81546001600160a01b03168152600190910190602001808311612ec2575b5050505050905090565b505050506001600160a01b03166000908152600c602052604090205460ff161590565b6000612f1883611ec8565b612f57576040805162461bcd60e51b815260206004820152601160248201526000805160206152f9833981519152604482015290519081900360640190fd5b6009546001600160a01b0316331480612f7a57506000546001600160a01b031633145b612fc4576040805162461bcd60e51b8152602060048201526016602482015275677561726469616e206f722061646d696e206f6e6c7960501b604482015290519081900360640190fd5b6000546001600160a01b0316331480612fdf57506001821515145b61301d576040805162461bcd60e51b815260206004820152600a60248201526961646d696e206f6e6c7960b01b604482015290519081900360640190fd5b6001600160a01b0383166000818152600c6020908152604091829020805486151560ff199091168117909155825193845283830152606090830181905260099083015268233630b9b43637b0b760b91b6080830152517f71aec636243f9709bb0007ae15e9afb8150ab01716d75fd7573be5cc096e03b09181900360a00190a150919050565b6002546001600160a01b031681565b600954600090600160b01b900460ff1615613109576040805162461bcd60e51b81526020600482015260126024820152711d1c985b9cd9995c881a5cc81c185d5cd95960721b604482015290519081900360640190fd5b6131138386611cfa565b1561314f5760405162461bcd60e51b81526004018080602001828103825260238152602001806152b46023913960400191505060405180910390fd5b6115e0858584614b7c565b606060008251905060608160405190808252806020026020018201604052801561318e578160200160208202803883390190505b50905060005b828110156131e95760008582815181106131aa57fe5b602002602001015190506131be8133614d1f565b60118111156131c957fe5b8383815181106131d557fe5b602090810291909101015250600101613194565b509392505050565b600480546040805163fc57d4df60e01b81526001600160a01b038781169482019490945290516000938493849391169163fc57d4df91602480820192602092909190829003018186803b15801561324757600080fd5b505afa15801561325b573d6000803e3d6000fd5b505050506040513d602081101561327157600080fd5b5051600480546040805163fc57d4df60e01b81526001600160a01b038a8116948201949094529051939450600093929091169163fc57d4df91602480820192602092909190829003018186803b1580156132ca57600080fd5b505afa1580156132de573d6000803e3d6000fd5b505050506040513d60208110156132f457600080fd5b5051905081158015906133075750600081115b613346576040805162461bcd60e51b815260206004820152600b60248201526a383934b1b29032b93937b960a91b604482015290519081900360640190fd5b6000866001600160a01b031663182df0f56040518163ffffffff1660e01b815260040160206040518083038186803b15801561338157600080fd5b505afa158015613395573d6000803e3d6000fd5b505050506040513d60208110156133ab57600080fd5b505190506133b7615218565b6133df6040518060200160405280600654815250604051806020016040528087815250614ee6565b90506133e9615218565b61340f604051806020016040528086815250604051806020016040528086815250614ee6565b9050613419615218565b6134238383614f25565b90506000613431828b614b5d565b600099509750505050505050505b935093915050565b600954600090600160b81b900460ff161561349b576040805162461bcd60e51b815260206004820152600f60248201526e1cd95a5e99481a5cc81c185d5cd959608a1b604482015290519081900360640190fd5b6134a58386611cfa565b156134f7576040805162461bcd60e51b815260206004820181905260248201527f63616e6e6f74207369657a652066726f6d20637265646974206163636f756e74604482015290519081900360640190fd5b613500856111dd565b80156135105750613510866111dd565b61354f576040805162461bcd60e51b815260206004820152601160248201526000805160206152f9833981519152604482015290519081900360640190fd5b846001600160a01b0316635fe3b5676040518163ffffffff1660e01b815260040160206040518083038186803b15801561358857600080fd5b505afa15801561359c573d6000803e3d6000fd5b505050506040513d60208110156135b257600080fd5b505160408051635fe3b56760e01b815290516001600160a01b0392831692891691635fe3b567916004808301926020929190829003018186803b1580156135f857600080fd5b505afa15801561360c573d6000803e3d6000fd5b505050506040513d602081101561362257600080fd5b50516001600160a01b031614613678576040805162461bcd60e51b815260206004820152601660248201527518dbdb5c1d1c9bdb1b195c881b5a5cdb585d18da195960521b604482015290519081900360640190fd5b60009695505050505050565b60146020526000908152604090205460ff1681565b600c6020526000908152604090205460ff1681565b6000546001600160a01b03163314806136d157506015546001600160a01b031633145b806136e657506009546001600160a01b031633145b6137215760405162461bcd60e51b815260040180806020018281038252603481526020018061533e6034913960400191505060405180910390fd5b61372a82611ec8565b613769576040805162461bcd60e51b815260206004820152601160248201526000805160206152f9833981519152604482015290519081900360640190fd5b6001600160a01b0380841660009081526012602090815260408083209386168352929052205415801561379b57508015155b156137fe576000546001600160a01b03163314806137c357506015546001600160a01b031633145b6137fe5760405162461bcd60e51b81526004018080602001828103825260228152602001806153bb6022913960400191505060405180910390fd5b6001600160a01b03808416600081815260126020908152604080832094871680845294825291829020859055815192835282019290925280820183905290517fd2430896b2083037d8bf873ee97e05de0442c7137b4c9413b9e928f7212869e99181900360600190a1505050565b6001600160a01b0383166000908152600b602052604081205460ff16156138cd576040805162461bcd60e51b815260206004820152601060248201526f189bdc9c9bddc81a5cc81c185d5cd95960821b604482015290519081900360640190fd5b6138d684611ec8565b613915576040805162461bcd60e51b815260206004820152601160248201526000805160206152f9833981519152604482015290519081900360640190fd5b6001600160a01b038085166000908152600860209081526040808320938716835260029093019052205460ff16613a2e57336001600160a01b0385161461399b576040805162461bcd60e51b815260206004820152601560248201527439b2b73232b91036bab9ba1031329031aa37b5b2b760591b604482015290519081900360640190fd5b60006139a78585614d1f565b60118111156139b257fe5b146139fb576040805162461bcd60e51b815260206004820152601460248201527319985a5b1959081d1bc8185919081b585c9ad95d60621b604482015290519081900360640190fd5b6001600160a01b038085166000908152600860209081526040808320938716835260029093019052205460ff16613a2e57fe5b600480546040805163fc57d4df60e01b81526001600160a01b03888116948201949094529051929091169163fc57d4df91602480820192602092909190829003018186803b158015613a7f57600080fd5b505afa158015613a93573d6000803e3d6000fd5b505050506040513d6020811015613aa957600080fd5b5051613aea576040805162461bcd60e51b815260206004820152600b60248201526a383934b1b29032b93937b960a91b604482015290519081900360640190fd5b6001600160a01b0384166000908152600f60205260409020548015613bd7576000856001600160a01b03166347bd37186040518163ffffffff1660e01b815260040160206040518083038186803b158015613b4457600080fd5b505afa158015613b58573d6000803e3d6000fd5b505050506040513d6020811015613b6e57600080fd5b505190506000613b7e8286614b07565b9050828110613bd4576040805162461bcd60e51b815260206004820152601960248201527f6d61726b657420626f72726f7720636170207265616368656400000000000000604482015290519081900360640190fd5b50505b6001600160a01b038085166000908152601260209081526040808320938916835292905220548015613d3d57600080876001600160a01b031663c37f68e2886040518263ffffffff1660e01b815260040180826001600160a01b03166001600160a01b0316815260200191505060806040518083038186803b158015613c5c57600080fd5b505afa158015613c70573d6000803e3d6000fd5b505050506040513d6080811015613c8657600080fd5b50805160409091015190925090508115613cd8576040805162461bcd60e51b815260206004820152600e60248201526d39b730b839b437ba1032b93937b960911b604482015290519081900360640190fd5b613ce28187614b07565b831015613d36576040805162461bcd60e51b815260206004820152601960248201527f696e73756666696369656e7420637265646974206c696d697400000000000000604482015290519081900360640190fd5b5050613678565b600080613d4d87896000896146e5565b91935090915060009050826011811115613d6357fe5b14613db5576040805162461bcd60e51b815260206004820152601f60248201527f6661696c656420746f20676574206163636f756e74206c697175696469747900604482015290519081900360640190fd5b8015613e01576040805162461bcd60e51b8152602060048201526016602482015275696e73756666696369656e74206c697175696469747960501b604482015290519081900360640190fd5b505060009695505050505050565b60076020528160005260406000208181548110613e2857fe5b6000918252602090912001546001600160a01b03169150829050565b6003546001600160a01b031681565b600080546001600160a01b03163314613e7957613e72600160066145a1565b90506113b4565b6001600160a01b0383166000908152600860205260409020805460ff16613eae57613ea6600960076145a1565b9150506113b4565b613eb6615218565b506040805160208101909152838152613ecd615218565b506040805160208101909152670c7d713b49da00008152613eee8183614f61565b15613f0957613eff600660086145a1565b93505050506113b4565b8415801590613f925750600480546040805163fc57d4df60e01b81526001600160a01b038a8116948201949094529051929091169163fc57d4df91602480820192602092909190829003018186803b158015613f6457600080fd5b505afa158015613f78573d6000803e3d6000fd5b505050506040513d6020811015613f8e57600080fd5b5051155b15613fa357613eff600d60096145a1565b60018301805490869055604080516001600160a01b03891681526020810183905280820188905290517f70483e6592cd5182d45ac970e05bc62cdcc90e9d8ef2c2dbe686cf383bcd7fc59181900360600190a16000979650505050505050565b600954600160a81b900460ff1681565b60055481565b6000546001600160a01b03163314614065576040805162461bcd60e51b815260206004820152600a60248201526961646d696e206f6e6c7960b01b604482015290519081900360640190fd5b306001600160a01b0316816001600160a01b0316635fe3b5676040518163ffffffff1660e01b815260040160206040518083038186803b1580156140a857600080fd5b505afa1580156140bc573d6000803e3d6000fd5b505050506040513d60208110156140d257600080fd5b50516001600160a01b031614614126576040805162461bcd60e51b815260206004820152601460248201527336b4b9b6b0ba31b41031b7b6b83a3937b63632b960611b604482015290519081900360640190fd5b601380546001600160a01b038381166001600160a01b0319831617928390556040805192821680845293909116602083015280517f4247a233ab0926daf14619c57e7d333975443a34cc5e1a30478bc4e7e716c8a29281900390910190a15050565b6000614195848484614b7c565b949350505050565b6000808290506000806000836001600160a01b031663c37f68e2336040518263ffffffff1660e01b815260040180826001600160a01b03166001600160a01b0316815260200191505060806040518083038186803b1580156141fe57600080fd5b505afa158015614212573d6000803e3d6000fd5b505050506040513d608081101561422857600080fd5b50805160208201516040909201519094509092509050821561427b5760405162461bcd60e51b81526004018080602001828103825260258152602001806153196025913960400191505060405180910390fd5b80156142c7576040805162461bcd60e51b81526020600482015260166024820152756e6f6e7a65726f20626f72726f772062616c616e636560501b604482015290519081900360640190fd5b6142d2863384614b7c565b1561431c576040805162461bcd60e51b815260206004820152601560248201527419985a5b1959081d1bc8195e1a5d081b585c9ad95d605a1b604482015290519081900360640190fd5b6001600160a01b03861660009081526008602052604090206001600382015460ff16600281111561434957fe5b14156143af5760408051638b35776b60e01b815233600482015290516001600160a01b03891691638b35776b91602480830192600092919082900301818387803b15801561439657600080fd5b505af11580156143aa573d6000803e3d6000fd5b505050505b33600090815260028201602052604090205460ff166143d65760009550505050505061121f565b3360009081526002820160209081526040808320805460ff19169055600782529182902080548351818402810184019094528084526060939283018282801561444857602002820191906000526020600020905b81546001600160a01b0316815260019091019060200180831161442a575b5050835193945083925060009150505b8281101561449d57886001600160a01b031684828151811061447657fe5b60200260200101516001600160a01b031614156144955780915061449d565b600101614458565b508181106144a757fe5b336000908152600760205260409020805460001901821461452d578054819060001981019081106144d457fe5b9060005260206000200160009054906101000a90046001600160a01b03168183815481106144fe57fe5b9060005260206000200160006101000a8154816001600160a01b0302191690836001600160a01b031602179055505b805461453d8260001983016151f4565b50604080516001600160a01b038b16815233602082015281517fe699a64c18b07ac5b7301aa273f36a2287239eb9501d81950672794afba29a0d929181900390910190a160009b9a5050505050505050505050565b6000546001600160a01b031681565b60007f45b96fe442630264581b197e84bbada861235052c5a1aadfff9ea4e40a969aa08360118111156145d057fe5b8360138111156145dc57fe5b604080519283526020830191909152600082820152519081900360600190a18260118111156117ac57fe5b60005b600d5481101561469257816001600160a01b0316600d828154811061462b57fe5b6000918252602090912001546001600160a01b0316141561468a576040805162461bcd60e51b81526020600482015260146024820152731b585c9ad95d08185b1c9958591e48185919195960621b604482015290519081900360640190fd5b60010161460a565b50600d80546001810182556000919091527fd7b6990105719101dabeb77144f2a3385c8033acd3af97e9423a695e81ad1eb50180546001600160a01b0319166001600160a01b0392909216919091179055565b60008060006146f261522b565b6001600160a01b0388166000908152600760209081526040808320805482518185028101850190935280835260609383018282801561475a57602002820191906000526020600020905b81546001600160a01b0316815260019091019060200180831161473c575b50939450600093505050505b8151811015614a7c57600082828151811061477d57fe5b60200260200101519050614790816111dd565b61479a5750614a74565b806001600160a01b031663c37f68e28d6040518263ffffffff1660e01b815260040180826001600160a01b03166001600160a01b0316815260200191505060806040518083038186803b1580156147f057600080fd5b505afa158015614804573d6000803e3d6000fd5b505050506040513d608081101561481a57600080fd5b508051602082015160408084015160609485015160808b0152938901939093529187019190915293508315614887576040805162461bcd60e51b815260206004820152600e60248201526d39b730b839b437ba1032b93937b960911b604482015290519081900360640190fd5b604085015115801561489b57506060850151155b80156148b957508a6001600160a01b0316816001600160a01b031614155b156148c45750614a74565b60408051602080820183526001600160a01b0380851660008181526008845285902060010154845260c08a01939093528351808301855260808a0151815260e08a015260048054855163fc57d4df60e01b815291820194909452935192169263fc57d4df9260248083019392829003018186803b15801561494457600080fd5b505afa158015614958573d6000803e3d6000fd5b505050506040513d602081101561496e57600080fd5b505160a086018190526149b6576040805162461bcd60e51b815260206004820152600b60248201526a383934b1b29032b93937b960a91b604482015290519081900360640190fd5b604080516020810190915260a0860151815261010086015260c085015160e08601516149f0916149e591614ee6565b866101000151614ee6565b610120860181905260408601518651614a0a929190614f68565b855261010085015160608601516020870151614a27929190614f68565b60208601526001600160a01b03818116908c161415614a7257614a548561012001518b8760200151614f68565b60208601819052610100860151614a6c918b90614f68565b60208601525b505b600101614766565b50602083015183511115614aa25750506020810151905160009450039150829050612050565b5050805160209091015160009450849350039050612050565b600080600080614acb8787614f90565b90925090506000826003811115614ade57fe5b14614aef575091506000905061343f565b614af98186614fb9565b935093505050935093915050565b60006117ac8383604051806040016040528060118152602001706164646974696f6e206f766572666c6f7760781b815250614fdc565b6000806000614b508460008060006146e5565b9250925092509193909250565b6000614b67615218565b614b718484615077565b905061419581615098565b6000614b87846111dd565b614bc6576040805162461bcd60e51b815260206004820152601160248201526000805160206152f9833981519152604482015290519081900360640190fd5b614bd08385611cfa565b15614c22576040805162461bcd60e51b815260206004820152601c60248201527f637265646974206163636f756e742063616e6e6f742072656465656d00000000604482015290519081900360640190fd5b6001600160a01b038085166000908152600860209081526040808320938716835260029093019052205460ff16614c5b575060006117ac565b600080614c6b85878660006146e5565b91935090915060009050826011811115614c8157fe5b14614cd3576040805162461bcd60e51b815260206004820152601f60248201527f6661696c656420746f20676574206163636f756e74206c697175696469747900604482015290519081900360640190fd5b8015613678576040805162461bcd60e51b8152602060048201526016602482015275696e73756666696369656e74206c697175696469747960501b604482015290519081900360640190fd5b6001600160a01b0382166000908152600860205260408120805460ff16614d7b576040805162461bcd60e51b815260206004820152601160248201526000805160206152f9833981519152604482015290519081900360640190fd5b6001600382015460ff166002811115614d9057fe5b1415614e1b57836001600160a01b0316638897bd85846040518263ffffffff1660e01b815260040180826001600160a01b03166001600160a01b03168152602001915050602060405180830381600087803b158015614dee57600080fd5b505af1158015614e02573d6000803e3d6000fd5b505050506040513d6020811015614e1857600080fd5b50505b6001600160a01b038316600090815260028201602052604090205460ff16151560011415614e4d5760009150506113b4565b6001600160a01b0380841660008181526002840160209081526040808320805460ff19166001908117909155600783528184208054918201815584529282902090920180549489166001600160a01b031990951685179055815193845283019190915280517f3ab23ab0d51cccc0c3085aec51f99228625aa1a922b3a8ca89a26b0f2027a1a59281900390910190a15060009392505050565b614eee615218565b6040518060200160405280670de0b6b3a7640000614f14866000015186600001516150a7565b81614f1b57fe5b0490529392505050565b614f2d615218565b6040518060200160405280614f58614f518660000151670de0b6b3a76400006150a7565b85516150e9565b90529392505050565b5190511090565b6000614f72615218565b614f7c8585615077565b90506115e0614f8a82615098565b84614b07565b600080838301848110614fa857600092509050614fb2565b5060029150600090505b9250929050565b600080838311614fd0575060009050818303614fb2565b50600390506000614fb2565b6000838301828582101561506e5760405162461bcd60e51b81526004018080602001828103825283818151815260200191508051906020019080838360005b8381101561503357818101518382015260200161501b565b50505050905090810190601f1680156150605780820380516001836020036101000a031916815260200191505b509250505060405180910390fd5b50949350505050565b61507f615218565b6040518060200160405280614f588560000151856150a7565b51670de0b6b3a7640000900490565b60006117ac83836040518060400160405280601781526020017f6d756c7469706c69636174696f6e206f766572666c6f7700000000000000000081525061511c565b60006117ac83836040518060400160405280600e81526020016d646976696465206279207a65726f60901b815250615192565b6000831580615129575082155b15615136575060006117ac565b8383028385828161514357fe5b0414839061506e5760405162461bcd60e51b815260206004820181815283516024840152835190928392604490910191908501908083836000831561503357818101518382015260200161501b565b600081836151e15760405162461bcd60e51b815260206004820181815283516024840152835190928392604490910191908501908083836000831561503357818101518382015260200161501b565b508284816151eb57fe5b04949350505050565b8154818355818111156126ae576000838152602090206126ae918101908301615295565b6040518060200160405280600081525090565b604051806101400160405280600081526020016000815260200160008152602001600081526020016000815260200160008152602001615269615218565b8152602001615276615218565b8152602001615283615218565b8152602001615290615218565b905290565b611eee91905b808211156152af576000815560010161529b565b509056fe63616e6e6f74207472616e7366657220746f206120637265646974206163636f756e746d61726b6574206e6f74206c6973746564206f7220736f66742064656c69737465646d61726b6574206e6f74206c6973746564000000000000000000000000000000657869744d61726b65743a206765744163636f756e74536e617073686f74206661696c656461646d696e206f7220637265646974206c696d6974206d616e61676572206f7220706175736520677561726469616e206f6e6c796d61726b657420616c7265616479206c6973746564206f722064656c697374656463616e6e6f74207265706179206f6e20626568616c66206f6620637265646974206163636f756e7461646d696e206f7220637265646974206c696d6974206d616e61676572206f6e6c79a265627a7a72315820a5e8c0f0b0f87fe22012daf57b28e110f850ccdddb1a627bbc7afe528bea813064736f6c63430005110032",
  "devdoc": {
    "author": "Compound (modified by Cream)",
    "methods": {
      "_delistMarket(address,bool)": {
        "params": {
          "cToken": "The address of the market (token) to delist",
          "force": "If True, hard delist the market by not adding to `isMarketDelisted`"
        }
      },
      "_setCloseFactor(uint256)": {
        "details": "Admin function to set closeFactor",
        "params": {
          "newCloseFactorMantissa": "New close factor, scaled by 1e18"
        },
        "return": "uint 0=success, otherwise a failure. (See ErrorReporter for details)"
      },
      "_setCollateralFactor(address,uint256)": {
        "details": "Admin function to set per-market collateralFactor",
        "params": {
          "cToken": "The market to set the factor on",
          "newCollateralFactorMantissa": "The new collateral factor, scaled by 1e18"
        },
        "return": "uint 0=success, otherwise a failure. (See ErrorReporter for details)"
      },
      "_setCreditLimit(address,address,uint256)": {
        "params": {
          "creditLimit": "The credit limit",
          "market": "The market",
          "protocol": "The address of the protocol"
        }
      },
      "_setCreditLimitManager(address)": {
        "params": {
          "newCreditLimitManager": "The address of the new credit limit manager"
        }
      },
      "_setLiquidationIncentive(uint256)": {
        "details": "Admin function to set liquidationIncentive",
        "params": {
          "newLiquidationIncentiveMantissa": "New liquidationIncentive scaled by 1e18"
        },
        "return": "uint 0=success, otherwise a failure. (See ErrorReporter for details)"
      },
      "_setLiquidityMining(address)": {
        "details": "Removing the liquidity mining module address could cause the inconsistency in the LM module.",
        "params": {
          "newLiquidityMining": "The address of the new liquidity mining module"
        }
      },
      "_setMarketBorrowCaps(address[],uint256[])": {
        "details": "Admin or pauseGuardian function to set the borrow caps. A borrow cap of 0 corresponds to unlimited borrowing. If the total supplies     already exceeded the cap, it will prevent anyone to mint.",
        "params": {
          "cTokens": "The addresses of the markets (tokens) to change the borrow caps for",
          "newBorrowCaps": "The new borrow cap values in underlying to be set. A value of 0 corresponds to unlimited borrowing."
        }
      },
      "_setMarketSupplyCaps(address[],uint256[])": {
        "details": "Admin or pauseGuardian function to set the supply caps. A supply cap of 0 corresponds to unlimited supplying. If the total borrows     already exceeded the cap, it will prevent anyone to borrow.",
        "params": {
          "cTokens": "The addresses of the markets (tokens) to change the supply caps for",
          "newSupplyCaps": "The new supply cap values in underlying to be set. A value of 0 corresponds to unlimited supplying."
        }
      },
      "_setPauseGuardian(address)": {
        "params": {
          "newPauseGuardian": "The address of the new Pause Guardian"
        },
        "return": "uint 0=success, otherwise a failure. (See enum Error for details)"
      },
      "_setPriceOracle(address)": {
        "details": "Admin function to set a new price oracle",
        "return": "uint 0=success, otherwise a failure (see ErrorReporter.sol for details)"
      },
      "_supportMarket(address,uint8)": {
        "details": "Admin function to set isListed and add support for the market",
        "params": {
          "cToken": "The address of the market (token) to list",
          "version": "The version of the market (token)"
        },
        "return": "uint 0=success, otherwise a failure. (See enum Error for details)"
      },
      "borrowAllowed(address,address,uint256)": {
        "params": {
          "borrowAmount": "The amount of underlying the account would borrow",
          "borrower": "The account which would borrow the asset",
          "cToken": "The market to verify the borrow against"
        },
        "return": "0 if the borrow is allowed, otherwise a semi-opaque error code (See ErrorReporter.sol)"
      },
      "borrowVerify(address,address,uint256)": {
        "params": {
          "borrowAmount": "The amount of the underlying asset requested to borrow",
          "borrower": "The address borrowing the underlying",
          "cToken": "Asset whose underlying is being borrowed"
        }
      },
      "checkMembership(address,address)": {
        "params": {
          "account": "The address of the account to check",
          "cToken": "The cToken to check"
        },
        "return": "True if the account is in the asset, otherwise false."
      },
      "enterMarkets(address[])": {
        "params": {
          "cTokens": "The list of addresses of the cToken markets to be enabled"
        },
        "return": "Success indicator for whether each corresponding market was entered"
      },
      "exitMarket(address)": {
        "details": "Sender must not have an outstanding borrow balance in the asset, or be providing necessary collateral for an outstanding borrow.",
        "params": {
          "cTokenAddress": "The address of the asset to be removed"
        },
        "return": "Whether or not the account successfully exited the market"
      },
      "flashloanAllowed(address,address,uint256,bytes)": {
        "params": {
          "amount": "The amount of the tokens",
          "cToken": "The market to verify the transfer against",
          "params": "The other parameters",
          "receiver": "The account which receives the tokens"
        }
      },
      "getAccountLiquidity(address)": {
        "return": "(possible error code (semi-opaque), account liquidity in excess of collateral requirements,         account shortfall below collateral requirements)"
      },
      "getAllMarkets()": {
        "details": "The automatic getter may be used to access an individual market.",
        "return": "The list of market addresses"
      },
      "getAssetsIn(address)": {
        "params": {
          "account": "The address of the account to pull assets for"
        },
        "return": "A dynamic list with the assets the account has entered"
      },
      "getHypotheticalAccountLiquidity(address,address,uint256,uint256)": {
        "params": {
          "account": "The account to determine liquidity for",
          "borrowAmount": "The amount of underlying to hypothetically borrow",
          "cTokenModify": "The market to hypothetically redeem/borrow in",
          "redeemTokens": "The number of tokens to hypothetically redeem"
        },
        "return": "(possible error code (semi-opaque), hypothetical account liquidity in excess of collateral requirements,         hypothetical account shortfall below collateral requirements)"
      },
      "isCreditAccount(address,address)": {
        "params": {
          "account": "The account needs to be checked",
          "cToken": "The market"
        },
        "return": "The account is a credit account or not"
      },
      "isMarketListed(address)": {
        "params": {
          "cTokenAddress": "The address of the asset to be checked"
        },
        "return": "Whether or not the market is listed"
      },
      "isMarketListedOrDelisted(address)": {
        "params": {
          "cTokenAddress": "The address of the asset to be checked"
        },
        "return": "Whether or not the market is listed or delisted"
      },
      "liquidateBorrowAllowed(address,address,address,address,uint256)": {
        "params": {
          "borrower": "The address of the borrower",
          "cTokenBorrowed": "Asset which was borrowed by the borrower",
          "cTokenCollateral": "Asset which was used as collateral and will be seized",
          "liquidator": "The address repaying the borrow and seizing the collateral",
          "repayAmount": "The amount of underlying being repaid"
        }
      },
      "liquidateBorrowVerify(address,address,address,address,uint256,uint256)": {
        "params": {
          "actualRepayAmount": "The amount of underlying being repaid",
          "borrower": "The address of the borrower",
          "cTokenBorrowed": "Asset which was borrowed by the borrower",
          "cTokenCollateral": "Asset which was used as collateral and will be seized",
          "liquidator": "The address repaying the borrow and seizing the collateral"
        }
      },
      "liquidateCalculateSeizeTokens(address,address,uint256)": {
        "details": "Used in liquidation (called in cToken.liquidateBorrowFresh)",
        "params": {
          "actualRepayAmount": "The amount of cTokenBorrowed underlying to convert into cTokenCollateral tokens",
          "cTokenBorrowed": "The address of the borrowed cToken",
          "cTokenCollateral": "The address of the collateral cToken"
        },
        "return": "(errorCode, number of cTokenCollateral tokens to be seized in a liquidation)"
      },
      "mintAllowed(address,address,uint256)": {
        "params": {
          "cToken": "The market to verify the mint against",
          "mintAmount": "The amount of underlying being supplied to the market in exchange for tokens",
          "minter": "The account which would get the minted tokens"
        },
        "return": "0 if the mint is allowed, otherwise a semi-opaque error code (See ErrorReporter.sol)"
      },
      "mintVerify(address,address,uint256,uint256)": {
        "params": {
          "actualMintAmount": "The amount of the underlying asset being minted",
          "cToken": "Asset being minted",
          "mintTokens": "The number of tokens being minted",
          "minter": "The address minting the tokens"
        }
      },
      "redeemAllowed(address,address,uint256)": {
        "params": {
          "cToken": "The market to verify the redeem against",
          "redeemTokens": "The number of cTokens to exchange for the underlying asset in the market",
          "redeemer": "The account which would redeem the tokens"
        },
        "return": "0 if the redeem is allowed, otherwise a semi-opaque error code (See ErrorReporter.sol)"
      },
      "redeemVerify(address,address,uint256,uint256)": {
        "params": {
          "cToken": "Asset being redeemed",
          "redeemAmount": "The amount of the underlying asset being redeemed",
          "redeemTokens": "The number of tokens being redeemed",
          "redeemer": "The address redeeming the tokens"
        }
      },
      "repayBorrowAllowed(address,address,address,uint256)": {
        "params": {
          "borrower": "The account which would borrowed the asset",
          "cToken": "The market to verify the repay against",
          "payer": "The account which would repay the asset",
          "repayAmount": "The amount of the underlying asset the account would repay"
        },
        "return": "0 if the repay is allowed, otherwise a semi-opaque error code (See ErrorReporter.sol)"
      },
      "repayBorrowVerify(address,address,address,uint256,uint256)": {
        "params": {
          "actualRepayAmount": "The amount of underlying being repaid",
          "borrower": "The address of the borrower",
          "cToken": "Asset being repaid",
          "payer": "The address repaying the borrow"
        }
      },
      "seizeAllowed(address,address,address,address,uint256)": {
        "params": {
          "borrower": "The address of the borrower",
          "cTokenBorrowed": "Asset which was borrowed by the borrower",
          "cTokenCollateral": "Asset which was used as collateral and will be seized",
          "liquidator": "The address repaying the borrow and seizing the collateral",
          "seizeTokens": "The number of collateral tokens to seize"
        }
      },
      "seizeVerify(address,address,address,address,uint256)": {
        "params": {
          "borrower": "The address of the borrower",
          "cTokenBorrowed": "Asset which was borrowed by the borrower",
          "cTokenCollateral": "Asset which was used as collateral and will be seized",
          "liquidator": "The address repaying the borrow and seizing the collateral",
          "seizeTokens": "The number of collateral tokens to seize"
        }
      },
      "transferAllowed(address,address,address,uint256)": {
        "params": {
          "cToken": "The market to verify the transfer against",
          "dst": "The account which receives the tokens",
          "src": "The account which sources the tokens",
          "transferTokens": "The number of cTokens to transfer"
        },
        "return": "0 if the transfer is allowed, otherwise a semi-opaque error code (See ErrorReporter.sol)"
      },
      "transferVerify(address,address,address,uint256)": {
        "params": {
          "cToken": "Asset being transferred",
          "dst": "The account which receives the tokens",
          "src": "The account which sources the tokens",
          "transferTokens": "The number of cTokens to transfer"
        }
      },
      "updateCTokenVersion(address,uint8)": {
        "params": {
          "cToken": "Version of the asset being updated",
          "newVersion": "The new version"
        }
      }
    },
    "title": "Compound's Comptroller Contract"
  },
  "userdoc": {
    "methods": {
      "_delistMarket(address,bool)": {
        "notice": "Remove the market from the markets mapping"
      },
      "_setCloseFactor(uint256)": {
        "notice": "Sets the closeFactor used when liquidating borrows"
      },
      "_setCollateralFactor(address,uint256)": {
        "notice": "Sets the collateralFactor for a market"
      },
      "_setCreditLimit(address,address,uint256)": {
        "notice": "Sets protocol's credit limit by market"
      },
      "_setCreditLimitManager(address)": {
        "notice": "Admin function to set the credit limit manager address"
      },
      "_setLiquidationIncentive(uint256)": {
        "notice": "Sets liquidationIncentive"
      },
      "_setLiquidityMining(address)": {
        "notice": "Admin function to set the liquidity mining module address"
      },
      "_setMarketBorrowCaps(address[],uint256[])": {
        "notice": "Set the given borrow caps for the given cToken markets. Borrowing that brings total borrows to or above borrow cap will revert."
      },
      "_setMarketSupplyCaps(address[],uint256[])": {
        "notice": "Set the given supply caps for the given cToken markets. Supplying that brings total supplys to or above supply cap will revert."
      },
      "_setPauseGuardian(address)": {
        "notice": "Admin function to change the Pause Guardian"
      },
      "_setPriceOracle(address)": {
        "notice": "Sets a new price oracle for the comptroller"
      },
      "_supportMarket(address,uint8)": {
        "notice": "Add the market to the markets mapping and set it as listed"
      },
      "borrowAllowed(address,address,uint256)": {
        "notice": "Checks if the account should be allowed to borrow the underlying asset of the given market"
      },
      "borrowVerify(address,address,uint256)": {
        "notice": "Validates borrow and reverts on rejection. May emit logs."
      },
      "checkMembership(address,address)": {
        "notice": "Returns whether the given account is entered in the given asset"
      },
      "enterMarkets(address[])": {
        "notice": "Add assets to be included in account liquidity calculation"
      },
      "exitMarket(address)": {
        "notice": "Removes asset from sender's account liquidity calculation"
      },
      "flashloanAllowed(address,address,uint256,bytes)": {
        "notice": "Checks if the account should be allowed to transfer tokens in the given market"
      },
      "getAccountLiquidity(address)": {
        "notice": "Determine the current account liquidity wrt collateral requirements"
      },
      "getAllMarkets()": {
        "notice": "Return all of the markets"
      },
      "getAssetsIn(address)": {
        "notice": "Returns the assets an account has entered"
      },
      "getHypotheticalAccountLiquidity(address,address,uint256,uint256)": {
        "notice": "Determine what the account liquidity would be if the given amounts were redeemed/borrowed"
      },
      "isCreditAccount(address,address)": {
        "notice": "Check if the account is a credit account"
      },
      "isMarketListed(address)": {
        "notice": "Return a specific market is listed or not"
      },
      "isMarketListedOrDelisted(address)": {
        "notice": "Return a specific market is listed or delisted"
      },
      "liquidateBorrowAllowed(address,address,address,address,uint256)": {
        "notice": "Checks if the liquidation should be allowed to occur"
      },
      "liquidateBorrowVerify(address,address,address,address,uint256,uint256)": {
        "notice": "Validates liquidateBorrow and reverts on rejection. May emit logs."
      },
      "liquidateCalculateSeizeTokens(address,address,uint256)": {
        "notice": "Calculate number of tokens of collateral asset to seize given an underlying amount"
      },
      "mintAllowed(address,address,uint256)": {
        "notice": "Checks if the account should be allowed to mint tokens in the given market"
      },
      "mintVerify(address,address,uint256,uint256)": {
        "notice": "Validates mint and reverts on rejection. May emit logs."
      },
      "redeemAllowed(address,address,uint256)": {
        "notice": "Checks if the account should be allowed to redeem tokens in the given market"
      },
      "redeemVerify(address,address,uint256,uint256)": {
        "notice": "Validates redeem and reverts on rejection. May emit logs."
      },
      "repayBorrowAllowed(address,address,address,uint256)": {
        "notice": "Checks if the account should be allowed to repay a borrow in the given market"
      },
      "repayBorrowVerify(address,address,address,uint256,uint256)": {
        "notice": "Validates repayBorrow and reverts on rejection. May emit logs."
      },
      "seizeAllowed(address,address,address,address,uint256)": {
        "notice": "Checks if the seizing of assets should be allowed to occur"
      },
      "seizeVerify(address,address,address,address,uint256)": {
        "notice": "Validates seize and reverts on rejection. May emit logs."
      },
      "transferAllowed(address,address,address,uint256)": {
        "notice": "Checks if the account should be allowed to transfer tokens in the given market"
      },
      "transferVerify(address,address,address,uint256)": {
        "notice": "Validates transfer and reverts on rejection. May emit logs."
      },
      "updateCTokenVersion(address,uint8)": {
        "notice": "Update CToken's version."
      }
    }
  },
  "storageLayout": {
    "storage": [
      {
        "astId": 20506,
        "contract": "contracts/compound-protocol/Comptroller.sol:Comptroller",
        "label": "admin",
        "offset": 0,
        "slot": "0",
        "type": "t_address"
      },
      {
        "astId": 20508,
        "contract": "contracts/compound-protocol/Comptroller.sol:Comptroller",
        "label": "pendingAdmin",
        "offset": 0,
        "slot": "1",
        "type": "t_address"
      },
      {
        "astId": 20510,
        "contract": "contracts/compound-protocol/Comptroller.sol:Comptroller",
        "label": "comptrollerImplementation",
        "offset": 0,
        "slot": "2",
        "type": "t_address"
      },
      {
        "astId": 20512,
        "contract": "contracts/compound-protocol/Comptroller.sol:Comptroller",
        "label": "pendingComptrollerImplementation",
        "offset": 0,
        "slot": "3",
        "type": "t_address"
      },
      {
        "astId": 20517,
        "contract": "contracts/compound-protocol/Comptroller.sol:Comptroller",
        "label": "oracle",
        "offset": 0,
        "slot": "4",
        "type": "t_contract(PriceOracle)30825"
      },
      {
        "astId": 20519,
        "contract": "contracts/compound-protocol/Comptroller.sol:Comptroller",
        "label": "closeFactorMantissa",
        "offset": 0,
        "slot": "5",
        "type": "t_uint256"
      },
      {
        "astId": 20521,
        "contract": "contracts/compound-protocol/Comptroller.sol:Comptroller",
        "label": "liquidationIncentiveMantissa",
        "offset": 0,
        "slot": "6",
        "type": "t_uint256"
      },
      {
        "astId": 20526,
        "contract": "contracts/compound-protocol/Comptroller.sol:Comptroller",
        "label": "accountAssets",
        "offset": 0,
        "slot": "7",
        "type": "t_mapping(t_address,t_array(t_contract(CToken)9081)dyn_storage)"
      },
      {
        "astId": 20545,
        "contract": "contracts/compound-protocol/Comptroller.sol:Comptroller",
        "label": "markets",
        "offset": 0,
        "slot": "8",
        "type": "t_mapping(t_address,t_struct(Market)20541_storage)"
      },
      {
        "astId": 20547,
        "contract": "contracts/compound-protocol/Comptroller.sol:Comptroller",
        "label": "pauseGuardian",
        "offset": 0,
        "slot": "9",
        "type": "t_address"
      },
      {
        "astId": 20549,
        "contract": "contracts/compound-protocol/Comptroller.sol:Comptroller",
        "label": "_mintGuardianPaused",
        "offset": 20,
        "slot": "9",
        "type": "t_bool"
      },
      {
        "astId": 20551,
        "contract": "contracts/compound-protocol/Comptroller.sol:Comptroller",
        "label": "_borrowGuardianPaused",
        "offset": 21,
        "slot": "9",
        "type": "t_bool"
      },
      {
        "astId": 20553,
        "contract": "contracts/compound-protocol/Comptroller.sol:Comptroller",
        "label": "transferGuardianPaused",
        "offset": 22,
        "slot": "9",
        "type": "t_bool"
      },
      {
        "astId": 20555,
        "contract": "contracts/compound-protocol/Comptroller.sol:Comptroller",
        "label": "seizeGuardianPaused",
        "offset": 23,
        "slot": "9",
        "type": "t_bool"
      },
      {
        "astId": 20559,
        "contract": "contracts/compound-protocol/Comptroller.sol:Comptroller",
        "label": "mintGuardianPaused",
        "offset": 0,
        "slot": "10",
        "type": "t_mapping(t_address,t_bool)"
      },
      {
        "astId": 20563,
        "contract": "contracts/compound-protocol/Comptroller.sol:Comptroller",
        "label": "borrowGuardianPaused",
        "offset": 0,
        "slot": "11",
        "type": "t_mapping(t_address,t_bool)"
      },
      {
        "astId": 20567,
        "contract": "contracts/compound-protocol/Comptroller.sol:Comptroller",
        "label": "flashloanGuardianPaused",
        "offset": 0,
        "slot": "12",
        "type": "t_mapping(t_address,t_bool)"
      },
      {
        "astId": 20570,
        "contract": "contracts/compound-protocol/Comptroller.sol:Comptroller",
        "label": "allMarkets",
        "offset": 0,
        "slot": "13",
        "type": "t_array(t_contract(CToken)9081)dyn_storage"
      },
      {
        "astId": 20572,
        "contract": "contracts/compound-protocol/Comptroller.sol:Comptroller",
        "label": "borrowCapGuardian",
        "offset": 0,
        "slot": "14",
        "type": "t_address"
      },
      {
        "astId": 20576,
        "contract": "contracts/compound-protocol/Comptroller.sol:Comptroller",
        "label": "borrowCaps",
        "offset": 0,
        "slot": "15",
        "type": "t_mapping(t_address,t_uint256)"
      },
      {
        "astId": 20578,
        "contract": "contracts/compound-protocol/Comptroller.sol:Comptroller",
        "label": "supplyCapGuardian",
        "offset": 0,
        "slot": "16",
        "type": "t_address"
      },
      {
        "astId": 20582,
        "contract": "contracts/compound-protocol/Comptroller.sol:Comptroller",
        "label": "supplyCaps",
        "offset": 0,
        "slot": "17",
        "type": "t_mapping(t_address,t_uint256)"
      },
      {
        "astId": 20588,
        "contract": "contracts/compound-protocol/Comptroller.sol:Comptroller",
        "label": "creditLimits",
        "offset": 0,
        "slot": "18",
        "type": "t_mapping(t_address,t_mapping(t_address,t_uint256))"
      },
      {
        "astId": 20590,
        "contract": "contracts/compound-protocol/Comptroller.sol:Comptroller",
        "label": "liquidityMining",
        "offset": 0,
        "slot": "19",
        "type": "t_address"
      },
      {
        "astId": 20594,
        "contract": "contracts/compound-protocol/Comptroller.sol:Comptroller",
        "label": "isMarketDelisted",
        "offset": 0,
        "slot": "20",
        "type": "t_mapping(t_address,t_bool)"
      },
      {
        "astId": 20596,
        "contract": "contracts/compound-protocol/Comptroller.sol:Comptroller",
        "label": "creditLimitManager",
        "offset": 0,
        "slot": "21",
        "type": "t_address"
      }
    ],
    "types": {
      "t_address": {
        "encoding": "inplace",
        "label": "address",
        "numberOfBytes": "20"
      },
      "t_array(t_contract(CToken)9081)dyn_storage": {
        "base": "t_contract(CToken)9081",
        "encoding": "dynamic_array",
        "label": "contract CToken[]",
        "numberOfBytes": "32"
      },
      "t_bool": {
        "encoding": "inplace",
        "label": "bool",
        "numberOfBytes": "1"
      },
      "t_contract(CToken)9081": {
        "encoding": "inplace",
        "label": "contract CToken",
        "numberOfBytes": "20"
      },
      "t_contract(PriceOracle)30825": {
        "encoding": "inplace",
        "label": "contract PriceOracle",
        "numberOfBytes": "20"
      },
      "t_enum(Version)20530": {
        "encoding": "inplace",
        "label": "enum ComptrollerV1Storage.Version",
        "numberOfBytes": "1"
      },
      "t_mapping(t_address,t_array(t_contract(CToken)9081)dyn_storage)": {
        "encoding": "mapping",
        "key": "t_address",
        "label": "mapping(address => contract CToken[])",
        "numberOfBytes": "32",
        "value": "t_array(t_contract(CToken)9081)dyn_storage"
      },
      "t_mapping(t_address,t_bool)": {
        "encoding": "mapping",
        "key": "t_address",
        "label": "mapping(address => bool)",
        "numberOfBytes": "32",
        "value": "t_bool"
      },
      "t_mapping(t_address,t_mapping(t_address,t_uint256))": {
        "encoding": "mapping",
        "key": "t_address",
        "label": "mapping(address => mapping(address => uint256))",
        "numberOfBytes": "32",
        "value": "t_mapping(t_address,t_uint256)"
      },
      "t_mapping(t_address,t_struct(Market)20541_storage)": {
        "encoding": "mapping",
        "key": "t_address",
        "label": "mapping(address => struct ComptrollerV1Storage.Market)",
        "numberOfBytes": "32",
        "value": "t_struct(Market)20541_storage"
      },
      "t_mapping(t_address,t_uint256)": {
        "encoding": "mapping",
        "key": "t_address",
        "label": "mapping(address => uint256)",
        "numberOfBytes": "32",
        "value": "t_uint256"
      },
      "t_struct(Market)20541_storage": {
        "encoding": "inplace",
        "label": "struct ComptrollerV1Storage.Market",
        "members": [
          {
            "astId": 20532,
            "contract": "contracts/compound-protocol/Comptroller.sol:Comptroller",
            "label": "isListed",
            "offset": 0,
            "slot": "0",
            "type": "t_bool"
          },
          {
            "astId": 20534,
            "contract": "contracts/compound-protocol/Comptroller.sol:Comptroller",
            "label": "collateralFactorMantissa",
            "offset": 0,
            "slot": "1",
            "type": "t_uint256"
          },
          {
            "astId": 20538,
            "contract": "contracts/compound-protocol/Comptroller.sol:Comptroller",
            "label": "accountMembership",
            "offset": 0,
            "slot": "2",
            "type": "t_mapping(t_address,t_bool)"
          },
          {
            "astId": 20540,
            "contract": "contracts/compound-protocol/Comptroller.sol:Comptroller",
            "label": "version",
            "offset": 0,
            "slot": "3",
            "type": "t_enum(Version)20530"
          }
        ],
        "numberOfBytes": "128"
      },
      "t_uint256": {
        "encoding": "inplace",
        "label": "uint256",
        "numberOfBytes": "32"
      }
    }
  }
}