{
  "address": "0x8CFbE29030260b8931aE499eDf5cE3f3cb02226f",
  "abi": [
    {
      "anonymous": false,
      "inputs": [
        {
          "indexed": false,
          "internalType": "address",
          "name": "previousAdmin",
          "type": "address"
        },
        {
          "indexed": false,
          "internalType": "address",
          "name": "newAdmin",
          "type": "address"
        }
      ],
      "name": "AdminChanged",
      "type": "event"
    },
    {
      "anonymous": false,
      "inputs": [
        {
          "indexed": true,
          "internalType": "address",
          "name": "beacon",
          "type": "address"
        }
      ],
      "name": "BeaconUpgraded",
      "type": "event"
    },
    {
      "anonymous": false,
      "inputs": [
        {
          "indexed": false,
          "internalType": "uint8",
          "name": "version",
          "type": "uint8"
        }
      ],
      "name": "Initialized",
      "type": "event"
    },
    {
      "anonymous": false,
      "inputs": [
        {
          "indexed": true,
          "internalType": "address",
          "name": "previousOwner",
          "type": "address"
        },
        {
          "indexed": true,
          "internalType": "address",
          "name": "newOwner",
          "type": "address"
        }
      ],
      "name": "OwnershipTransferred",
      "type": "event"
    },
    {
      "anonymous": false,
      "inputs": [
        {
          "indexed": true,
          "internalType": "address",
          "name": "rewardToken",
          "type": "address"
        },
        {
          "indexed": true,
          "internalType": "address",
          "name": "account",
          "type": "address"
        },
        {
          "indexed": true,
          "internalType": "address",
          "name": "receiver",
          "type": "address"
        },
        {
          "indexed": false,
          "internalType": "uint256",
          "name": "amount",
          "type": "uint256"
        }
      ],
      "name": "TransferReward",
      "type": "event"
    },
    {
      "anonymous": false,
      "inputs": [
        {
          "indexed": true,
          "internalType": "address",
          "name": "rewardToken",
          "type": "address"
        },
        {
          "indexed": true,
          "internalType": "address",
          "name": "cToken",
          "type": "address"
        },
        {
          "indexed": true,
          "internalType": "uint256",
          "name": "speed",
          "type": "uint256"
        },
        {
          "indexed": false,
          "internalType": "uint256",
          "name": "start",
          "type": "uint256"
        },
        {
          "indexed": false,
          "internalType": "uint256",
          "name": "end",
          "type": "uint256"
        }
      ],
      "name": "UpdateBorrowRewardSpeed",
      "type": "event"
    },
    {
      "anonymous": false,
      "inputs": [
        {
          "indexed": true,
          "internalType": "address",
          "name": "rewardToken",
          "type": "address"
        },
        {
          "indexed": true,
          "internalType": "address",
          "name": "cToken",
          "type": "address"
        },
        {
          "indexed": true,
          "internalType": "address",
          "name": "borrower",
          "type": "address"
        },
        {
          "indexed": false,
          "internalType": "uint256",
          "name": "rewards",
          "type": "uint256"
        },
        {
          "indexed": false,
          "internalType": "uint256",
          "name": "borrowIndex",
          "type": "uint256"
        }
      ],
      "name": "UpdateBorrowerRewardIndex",
      "type": "event"
    },
    {
      "anonymous": false,
      "inputs": [
        {
          "indexed": true,
          "internalType": "address",
          "name": "account",
          "type": "address"
        },
        {
          "indexed": true,
          "internalType": "bool",
          "name": "isDebtor",
          "type": "bool"
        }
      ],
      "name": "UpdateDebtor",
      "type": "event"
    },
    {
      "anonymous": false,
      "inputs": [
        {
          "indexed": true,
          "internalType": "address",
          "name": "account",
          "type": "address"
        },
        {
          "indexed": true,
          "internalType": "address",
          "name": "receiver",
          "type": "address"
        }
      ],
      "name": "UpdateRewardReceiver",
      "type": "event"
    },
    {
      "anonymous": false,
      "inputs": [
        {
          "indexed": true,
          "internalType": "address",
          "name": "rewardToken",
          "type": "address"
        },
        {
          "indexed": true,
          "internalType": "address",
          "name": "cToken",
          "type": "address"
        },
        {
          "indexed": true,
          "internalType": "address",
          "name": "supplier",
          "type": "address"
        },
        {
          "indexed": false,
          "internalType": "uint256",
          "name": "rewards",
          "type": "uint256"
        },
        {
          "indexed": false,
          "internalType": "uint256",
          "name": "supplyIndex",
          "type": "uint256"
        }
      ],
      "name": "UpdateSupplierRewardIndex",
      "type": "event"
    },
    {
      "anonymous": false,
      "inputs": [
        {
          "indexed": true,
          "internalType": "address",
          "name": "rewardToken",
          "type": "address"
        },
        {
          "indexed": true,
          "internalType": "address",
          "name": "cToken",
          "type": "address"
        },
        {
          "indexed": true,
          "internalType": "uint256",
          "name": "speed",
          "type": "uint256"
        },
        {
          "indexed": false,
          "internalType": "uint256",
          "name": "start",
          "type": "uint256"
        },
        {
          "indexed": false,
          "internalType": "uint256",
          "name": "end",
          "type": "uint256"
        }
      ],
      "name": "UpdateSupplyRewardSpeed",
      "type": "event"
    },
    {
      "anonymous": false,
      "inputs": [
        {
          "indexed": true,
          "internalType": "address",
          "name": "implementation",
          "type": "address"
        }
      ],
      "name": "Upgraded",
      "type": "event"
    },
    {
      "inputs": [
        {
          "internalType": "address",
          "name": "rewardToken",
          "type": "address"
        }
      ],
      "name": "addRewardToken",
      "outputs": [],
      "stateMutability": "nonpayable",
      "type": "function"
    },
    {
      "inputs": [
        {
          "internalType": "address",
          "name": "account",
          "type": "address"
        }
      ],
      "name": "claimAllRewards",
      "outputs": [],
      "stateMutability": "nonpayable",
      "type": "function"
    },
    {
      "inputs": [
        {
          "internalType": "address",
          "name": "account",
          "type": "address"
        },
        {
          "internalType": "address[]",
          "name": "cTokens",
          "type": "address[]"
        },
        {
          "internalType": "address[]",
          "name": "rewards",
          "type": "address[]"
        },
        {
          "internalType": "bool",
          "name": "borrowers",
          "type": "bool"
        },
        {
          "internalType": "bool",
          "name": "suppliers",
          "type": "bool"
        }
      ],
      "name": "claimRewards",
      "outputs": [],
      "stateMutability": "nonpayable",
      "type": "function"
    },
    {
      "inputs": [
        {
          "internalType": "address",
          "name": "account",
          "type": "address"
        },
        {
          "internalType": "address",
          "name": "reward",
          "type": "address"
        }
      ],
      "name": "claimSingleReward",
      "outputs": [
        {
          "components": [
            {
              "internalType": "address",
              "name": "market",
              "type": "address"
            },
            {
              "internalType": "bool",
              "name": "supply",
              "type": "bool"
            },
            {
              "internalType": "bool",
              "name": "borrow",
              "type": "bool"
            }
          ],
          "internalType": "struct LiquidityMining.UserMarkets[]",
          "name": "",
          "type": "tuple[]"
        }
      ],
      "stateMutability": "nonpayable",
      "type": "function"
    },
    {
      "inputs": [],
      "name": "comptroller",
      "outputs": [
        {
          "internalType": "address",
          "name": "",
          "type": "address"
        }
      ],
      "stateMutability": "view",
      "type": "function"
    },
    {
      "inputs": [
        {
          "internalType": "address",
          "name": "",
          "type": "address"
        }
      ],
      "name": "debtors",
      "outputs": [
        {
          "internalType": "bool",
          "name": "",
          "type": "bool"
        }
      ],
      "stateMutability": "view",
      "type": "function"
    },
    {
      "inputs": [],
      "name": "getBlockTimestamp",
      "outputs": [
        {
          "internalType": "uint256",
          "name": "",
          "type": "uint256"
        }
      ],
      "stateMutability": "view",
      "type": "function"
    },
    {
      "inputs": [
        {
          "internalType": "address",
          "name": "cToken",
          "type": "address"
        }
      ],
      "name": "getMarketRewardSpeeds",
      "outputs": [
        {
          "components": [
            {
              "internalType": "address",
              "name": "cToken",
              "type": "address"
            },
            {
              "components": [
                {
                  "components": [
                    {
                      "internalType": "address",
                      "name": "rewardTokenAddress",
                      "type": "address"
                    },
                    {
                      "internalType": "string",
                      "name": "rewardTokenSymbol",
                      "type": "string"
                    },
                    {
                      "internalType": "uint8",
                      "name": "rewardTokenDecimals",
                      "type": "uint8"
                    }
                  ],
                  "internalType": "struct LiquidityMining.RewardTokenInfo",
                  "name": "rewardToken",
                  "type": "tuple"
                },
                {
                  "components": [
                    {
                      "internalType": "uint256",
                      "name": "speed",
                      "type": "uint256"
                    },
                    {
                      "internalType": "uint256",
                      "name": "start",
                      "type": "uint256"
                    },
                    {
                      "internalType": "uint256",
                      "name": "end",
                      "type": "uint256"
                    }
                  ],
                  "internalType": "struct LiquidityMiningStorage.RewardSpeed",
                  "name": "supplySpeed",
                  "type": "tuple"
                },
                {
                  "components": [
                    {
                      "internalType": "uint256",
                      "name": "speed",
                      "type": "uint256"
                    },
                    {
                      "internalType": "uint256",
                      "name": "start",
                      "type": "uint256"
                    },
                    {
                      "internalType": "uint256",
                      "name": "end",
                      "type": "uint256"
                    }
                  ],
                  "internalType": "struct LiquidityMiningStorage.RewardSpeed",
                  "name": "borrowSpeed",
                  "type": "tuple"
                }
              ],
              "internalType": "struct LiquidityMining.RewardSpeedInfo[]",
              "name": "rewardSpeeds",
              "type": "tuple[]"
            }
          ],
          "internalType": "struct LiquidityMining.MarketRewardSpeed",
          "name": "",
          "type": "tuple"
        }
      ],
      "stateMutability": "view",
      "type": "function"
    },
    {
      "inputs": [
        {
          "internalType": "address[]",
          "name": "cTokens",
          "type": "address[]"
        }
      ],
      "name": "getMultipleMarketRewardSpeeds",
      "outputs": [
        {
          "components": [
            {
              "internalType": "address",
              "name": "cToken",
              "type": "address"
            },
            {
              "components": [
                {
                  "components": [
                    {
                      "internalType": "address",
                      "name": "rewardTokenAddress",
                      "type": "address"
                    },
                    {
                      "internalType": "string",
                      "name": "rewardTokenSymbol",
                      "type": "string"
                    },
                    {
                      "internalType": "uint8",
                      "name": "rewardTokenDecimals",
                      "type": "uint8"
                    }
                  ],
                  "internalType": "struct LiquidityMining.RewardTokenInfo",
                  "name": "rewardToken",
                  "type": "tuple"
                },
                {
                  "components": [
                    {
                      "internalType": "uint256",
                      "name": "speed",
                      "type": "uint256"
                    },
                    {
                      "internalType": "uint256",
                      "name": "start",
                      "type": "uint256"
                    },
                    {
                      "internalType": "uint256",
                      "name": "end",
                      "type": "uint256"
                    }
                  ],
                  "internalType": "struct LiquidityMiningStorage.RewardSpeed",
                  "name": "supplySpeed",
                  "type": "tuple"
                },
                {
                  "components": [
                    {
                      "internalType": "uint256",
                      "name": "speed",
                      "type": "uint256"
                    },
                    {
                      "internalType": "uint256",
                      "name": "start",
                      "type": "uint256"
                    },
                    {
                      "internalType": "uint256",
                      "name": "end",
                      "type": "uint256"
                    }
                  ],
                  "internalType": "struct LiquidityMiningStorage.RewardSpeed",
                  "name": "borrowSpeed",
                  "type": "tuple"
                }
              ],
              "internalType": "struct LiquidityMining.RewardSpeedInfo[]",
              "name": "rewardSpeeds",
              "type": "tuple[]"
            }
          ],
          "internalType": "struct LiquidityMining.MarketRewardSpeed[]",
          "name": "",
          "type": "tuple[]"
        }
      ],
      "stateMutability": "view",
      "type": "function"
    },
    {
      "inputs": [
        {
          "internalType": "address",
          "name": "rewardToken",
          "type": "address"
        }
      ],
      "name": "getRewardTokenInfo",
      "outputs": [
        {
          "components": [
            {
              "internalType": "address",
              "name": "rewardTokenAddress",
              "type": "address"
            },
            {
              "internalType": "string",
              "name": "rewardTokenSymbol",
              "type": "string"
            },
            {
              "internalType": "uint8",
              "name": "rewardTokenDecimals",
              "type": "uint8"
            }
          ],
          "internalType": "struct LiquidityMining.RewardTokenInfo",
          "name": "",
          "type": "tuple"
        }
      ],
      "stateMutability": "view",
      "type": "function"
    },
    {
      "inputs": [],
      "name": "getRewardTokenList",
      "outputs": [
        {
          "internalType": "address[]",
          "name": "",
          "type": "address[]"
        }
      ],
      "stateMutability": "view",
      "type": "function"
    },
    {
      "inputs": [
        {
          "internalType": "address",
          "name": "account",
          "type": "address"
        }
      ],
      "name": "getRewardsAvailable",
      "outputs": [
        {
          "components": [
            {
              "components": [
                {
                  "internalType": "address",
                  "name": "rewardTokenAddress",
                  "type": "address"
                },
                {
                  "internalType": "string",
                  "name": "rewardTokenSymbol",
                  "type": "string"
                },
                {
                  "internalType": "uint8",
                  "name": "rewardTokenDecimals",
                  "type": "uint8"
                }
              ],
              "internalType": "struct LiquidityMining.RewardTokenInfo",
              "name": "rewardToken",
              "type": "tuple"
            },
            {
              "internalType": "uint256",
              "name": "amount",
              "type": "uint256"
            }
          ],
          "internalType": "struct LiquidityMining.RewardAvailable[]",
          "name": "",
          "type": "tuple[]"
        }
      ],
      "stateMutability": "nonpayable",
      "type": "function"
    },
    {
      "inputs": [
        {
          "internalType": "address",
          "name": "_admin",
          "type": "address"
        },
        {
          "internalType": "address",
          "name": "_comptroller",
          "type": "address"
        }
      ],
      "name": "initialize",
      "outputs": [],
      "stateMutability": "nonpayable",
      "type": "function"
    },
    {
      "inputs": [],
      "name": "owner",
      "outputs": [
        {
          "internalType": "address",
          "name": "",
          "type": "address"
        }
      ],
      "stateMutability": "view",
      "type": "function"
    },
    {
      "inputs": [],
      "name": "proxiableUUID",
      "outputs": [
        {
          "internalType": "bytes32",
          "name": "",
          "type": "bytes32"
        }
      ],
      "stateMutability": "view",
      "type": "function"
    },
    {
      "inputs": [],
      "name": "renounceOwnership",
      "outputs": [],
      "stateMutability": "nonpayable",
      "type": "function"
    },
    {
      "inputs": [
        {
          "internalType": "address",
          "name": "",
          "type": "address"
        },
        {
          "internalType": "address",
          "name": "",
          "type": "address"
        }
      ],
      "name": "rewardAccrued",
      "outputs": [
        {
          "internalType": "uint256",
          "name": "",
          "type": "uint256"
        }
      ],
      "stateMutability": "view",
      "type": "function"
    },
    {
      "inputs": [
        {
          "internalType": "address",
          "name": "",
          "type": "address"
        },
        {
          "internalType": "address",
          "name": "",
          "type": "address"
        }
      ],
      "name": "rewardBorrowSpeeds",
      "outputs": [
        {
          "internalType": "uint256",
          "name": "speed",
          "type": "uint256"
        },
        {
          "internalType": "uint256",
          "name": "start",
          "type": "uint256"
        },
        {
          "internalType": "uint256",
          "name": "end",
          "type": "uint256"
        }
      ],
      "stateMutability": "view",
      "type": "function"
    },
    {
      "inputs": [
        {
          "internalType": "address",
          "name": "",
          "type": "address"
        },
        {
          "internalType": "address",
          "name": "",
          "type": "address"
        }
      ],
      "name": "rewardBorrowState",
      "outputs": [
        {
          "internalType": "uint256",
          "name": "index",
          "type": "uint256"
        },
        {
          "internalType": "uint256",
          "name": "timestamp",
          "type": "uint256"
        }
      ],
      "stateMutability": "view",
      "type": "function"
    },
    {
      "inputs": [
        {
          "internalType": "address",
          "name": "",
          "type": "address"
        },
        {
          "internalType": "address",
          "name": "",
          "type": "address"
        },
        {
          "internalType": "address",
          "name": "",
          "type": "address"
        }
      ],
      "name": "rewardBorrowerIndex",
      "outputs": [
        {
          "internalType": "uint256",
          "name": "",
          "type": "uint256"
        }
      ],
      "stateMutability": "view",
      "type": "function"
    },
    {
      "inputs": [
        {
          "internalType": "address",
          "name": "",
          "type": "address"
        }
      ],
      "name": "rewardReceivers",
      "outputs": [
        {
          "internalType": "address",
          "name": "",
          "type": "address"
        }
      ],
      "stateMutability": "view",
      "type": "function"
    },
    {
      "inputs": [
        {
          "internalType": "address",
          "name": "",
          "type": "address"
        },
        {
          "internalType": "address",
          "name": "",
          "type": "address"
        },
        {
          "internalType": "address",
          "name": "",
          "type": "address"
        }
      ],
      "name": "rewardSupplierIndex",
      "outputs": [
        {
          "internalType": "uint256",
          "name": "",
          "type": "uint256"
        }
      ],
      "stateMutability": "view",
      "type": "function"
    },
    {
      "inputs": [
        {
          "internalType": "address",
          "name": "",
          "type": "address"
        },
        {
          "internalType": "address",
          "name": "",
          "type": "address"
        }
      ],
      "name": "rewardSupplySpeeds",
      "outputs": [
        {
          "internalType": "uint256",
          "name": "speed",
          "type": "uint256"
        },
        {
          "internalType": "uint256",
          "name": "start",
          "type": "uint256"
        },
        {
          "internalType": "uint256",
          "name": "end",
          "type": "uint256"
        }
      ],
      "stateMutability": "view",
      "type": "function"
    },
    {
      "inputs": [
        {
          "internalType": "address",
          "name": "",
          "type": "address"
        },
        {
          "internalType": "address",
          "name": "",
          "type": "address"
        }
      ],
      "name": "rewardSupplyState",
      "outputs": [
        {
          "internalType": "uint256",
          "name": "index",
          "type": "uint256"
        },
        {
          "internalType": "uint256",
          "name": "timestamp",
          "type": "uint256"
        }
      ],
      "stateMutability": "view",
      "type": "function"
    },
    {
      "inputs": [
        {
          "internalType": "uint256",
          "name": "",
          "type": "uint256"
        }
      ],
      "name": "rewardTokens",
      "outputs": [
        {
          "internalType": "address",
          "name": "",
          "type": "address"
        }
      ],
      "stateMutability": "view",
      "type": "function"
    },
    {
      "inputs": [
        {
          "internalType": "address",
          "name": "",
          "type": "address"
        }
      ],
      "name": "rewardTokensMap",
      "outputs": [
        {
          "internalType": "bool",
          "name": "",
          "type": "bool"
        }
      ],
      "stateMutability": "view",
      "type": "function"
    },
    {
      "inputs": [
        {
          "internalType": "address",
          "name": "rewardToken",
          "type": "address"
        },
        {
          "internalType": "address[]",
          "name": "cTokens",
          "type": "address[]"
        },
        {
          "internalType": "uint256[]",
          "name": "speeds",
          "type": "uint256[]"
        },
        {
          "internalType": "uint256[]",
          "name": "starts",
          "type": "uint256[]"
        },
        {
          "internalType": "uint256[]",
          "name": "ends",
          "type": "uint256[]"
        }
      ],
      "name": "setRewardBorrowSpeeds",
      "outputs": [],
      "stateMutability": "nonpayable",
      "type": "function"
    },
    {
      "inputs": [
        {
          "internalType": "address",
          "name": "rewardToken",
          "type": "address"
        },
        {
          "internalType": "address[]",
          "name": "cTokens",
          "type": "address[]"
        },
        {
          "internalType": "uint256[]",
          "name": "speeds",
          "type": "uint256[]"
        },
        {
          "internalType": "uint256[]",
          "name": "starts",
          "type": "uint256[]"
        },
        {
          "internalType": "uint256[]",
          "name": "ends",
          "type": "uint256[]"
        }
      ],
      "name": "setRewardSupplySpeeds",
      "outputs": [],
      "stateMutability": "nonpayable",
      "type": "function"
    },
    {
      "inputs": [
        {
          "internalType": "address",
          "name": "account",
          "type": "address"
        },
        {
          "internalType": "address",
          "name": "receiver",
          "type": "address"
        }
      ],
      "name": "setRewardsReceiver",
      "outputs": [],
      "stateMutability": "nonpayable",
      "type": "function"
    },
    {
      "inputs": [
        {
          "internalType": "address",
          "name": "newOwner",
          "type": "address"
        }
      ],
      "name": "transferOwnership",
      "outputs": [],
      "stateMutability": "nonpayable",
      "type": "function"
    },
    {
      "inputs": [
        {
          "internalType": "address",
          "name": "cToken",
          "type": "address"
        },
        {
          "internalType": "address[]",
          "name": "borrowers",
          "type": "address[]"
        }
      ],
      "name": "updateBorrowIndex",
      "outputs": [],
      "stateMutability": "nonpayable",
      "type": "function"
    },
    {
      "inputs": [
        {
          "internalType": "address[]",
          "name": "accounts",
          "type": "address[]"
        }
      ],
      "name": "updateDebtors",
      "outputs": [],
      "stateMutability": "nonpayable",
      "type": "function"
    },
    {
      "inputs": [
        {
          "internalType": "address",
          "name": "cToken",
          "type": "address"
        },
        {
          "internalType": "address[]",
          "name": "suppliers",
          "type": "address[]"
        }
      ],
      "name": "updateSupplyIndex",
      "outputs": [],
      "stateMutability": "nonpayable",
      "type": "function"
    },
    {
      "inputs": [
        {
          "internalType": "address",
          "name": "newImplementation",
          "type": "address"
        }
      ],
      "name": "upgradeTo",
      "outputs": [],
      "stateMutability": "nonpayable",
      "type": "function"
    },
    {
      "inputs": [
        {
          "internalType": "address",
          "name": "newImplementation",
          "type": "address"
        },
        {
          "internalType": "bytes",
          "name": "data",
          "type": "bytes"
        }
      ],
      "name": "upgradeToAndCall",
      "outputs": [],
      "stateMutability": "payable",
      "type": "function"
    }
  ],
  "transactionHash": "0xd780ca449e4c187748d20d96e0abcc0b657fb479527b89ab6226e540c8324e76",
  "args": [],
  "numDeployments": 1,
  "solcInputHash": "024dcc8854bb8c7e9e8da8cc57bb91f9",
  "bytecode": "0x60a06040523060805234801561001457600080fd5b506080516148ba61004c60003960008181610f1401528181610f54015281816110c801528181611108015261144b01526148ba6000f3fe6080604052600436106102045760003560e01c806360777a4f11610118578063969133a8116100a0578063b2989f5d1161006f578063b2989f5d14610735578063e3cec1a214610762578063e5029dc814610782578063e991560f146107c1578063f2fde38b146107e157600080fd5b8063969133a8146106835780639ebdff46146106a5578063a3d813b4146106c5578063aa6be3031461070557600080fd5b80637a685677116100e75780637a685677146105cb5780637bb7bed1146105f85780637d041f82146106185780638da5cb5b146106455780639222e5721461066357600080fd5b806360777a4f1461052f578063715018a61461056d5780637687c0e014610582578063796b89b9146105b857600080fd5b80633f7e29071161019b57806352d1902d1161016a57806352d1902d1461040c5780635f15ff42146104215780635f3b28021461044e5780635fd85d2f146104b05780635fe3b567146104f757600080fd5b80633f7e290714610399578063485cc955146103b95780634f1ef286146103d957806351593beb146103ec57600080fd5b80631c03e6cc116101d75780631c03e6cc146102e55780632a2b0f8414610305578063317d2abc146103255780633659cfe61461037957600080fd5b80630434b21014610209578063059123fc1461023f5780630bda5be1146102615780631ad964ed146102a7575b600080fd5b34801561021557600080fd5b50610229610224366004613c27565b610801565b6040516102369190613c60565b60405180910390f35b34801561024b57600080fd5b5061025f61025a366004613da3565b610b87565b005b34801561026d57600080fd5b5061029961027c366004613c27565b60d260209081526000928352604080842090915290825290205481565b604051908152602001610236565b3480156102b357600080fd5b506102996102c2366004613dd7565b60d060209081526000938452604080852082529284528284209052825290205481565b3480156102f157600080fd5b5061025f610300366004613e22565b610dd0565b34801561031157600080fd5b5061025f610320366004613e9a565b610ec9565b34801561033157600080fd5b50610364610340366004613c27565b60ce6020908152600092835260408084209091529082529020805460019091015482565b60408051928352602083019190915201610236565b34801561038557600080fd5b5061025f610394366004613e22565b610f09565b3480156103a557600080fd5b5061025f6103b4366004613e9a565b610fe9565b3480156103c557600080fd5b5061025f6103d4366004613c27565b611022565b61025f6103e7366004613f80565b6110bd565b3480156103f857600080fd5b5061025f61040736600461401b565b61118a565b34801561041857600080fd5b5061029961143e565b34801561042d57600080fd5b5061044161043c366004613e22565b6114f1565b6040516102369190614219565b34801561045a57600080fd5b50610495610469366004613c27565b60cd60209081526000928352604080842090915290825290208054600182015460029092015490919083565b60408051938452602084019290925290820152606001610236565b3480156104bc57600080fd5b506104956104cb366004613c27565b60cc60209081526000928352604080842090915290825290208054600182015460029092015490919083565b34801561050357600080fd5b5060c954610517906001600160a01b031681565b6040516001600160a01b039091168152602001610236565b34801561053b57600080fd5b5061029961054a366004613dd7565b60d160209081526000938452604080852082529284528284209052825290205481565b34801561057957600080fd5b5061025f6116e0565b34801561058e57600080fd5b5061051761059d366004613e22565b60d4602052600090815260409020546001600160a01b031681565b3480156105c457600080fd5b5042610299565b3480156105d757600080fd5b506105eb6105e6366004613e22565b611716565b604051610236919061422c565b34801561060457600080fd5b506105176106133660046142a2565b611a37565b34801561062457600080fd5b50610638610633366004613da3565b611a61565b60405161023691906142bb565b34801561065157600080fd5b506097546001600160a01b0316610517565b34801561066f57600080fd5b5061025f61067e36600461431d565b611b2c565b34801561068f57600080fd5b50610698611b93565b604051610236919061436c565b3480156106b157600080fd5b5061025f6106c0366004613c27565b611bf5565b3480156106d157600080fd5b506106f56106e0366004613e22565b60cb6020526000908152604090205460ff1681565b6040519015158152602001610236565b34801561071157600080fd5b506106f5610720366004613e22565b60d36020526000908152604090205460ff1681565b34801561074157600080fd5b50610755610750366004613e22565b611c76565b60405161023691906143b9565b34801561076e57600080fd5b5061025f61077d36600461431d565b611d70565b34801561078e57600080fd5b5061036461079d366004613c27565b60cf6020908152600092835260408084209091529082529020805460019091015482565b3480156107cd57600080fd5b5061025f6107dc366004613e22565b611dd7565b3480156107ed57600080fd5b5061025f6107fc366004613e22565b611f3a565b6001600160a01b03808316600090815260d460205260409020546060918491161561086d576001600160a01b03818116600090815260d460205260409020541633146108685760405162461bcd60e51b815260040161085f906143cc565b60405180910390fd5b610895565b336001600160a01b038216146108955760405162461bcd60e51b815260040161085f906143cc565b6001600160a01b038316600090815260cb602052604090205460ff166108cd5760405162461bcd60e51b815260040161085f906143f2565b6001600160a01b038416600090815260d3602052604090205460ff16156109065760405162461bcd60e51b815260040161085f90614429565b60c9546040805163b0772d0b60e01b815290516000926001600160a01b03169163b0772d0b91600480830192869291908290030181865afa15801561094f573d6000803e3d6000fd5b505050506040513d6000823e601f3d908101601f19168201604052610977919081019061446f565b9050600081516001600160401b0381111561099457610994613cc6565b6040519080825280602002602001820160405280156109df57816020015b60408051606081018252600080825260208083018290529282015282526000199092019101816109b25790505b50905060005b8251811015610b7d576000838281518110610a0257610a026144fd565b60200260200101516001600160a01b031663aa5af0fd6040518163ffffffff1660e01b8152600401602060405180830381865afa158015610a47573d6000803e3d6000fd5b505050506040513d601f19601f82011682018060405250810190610a6b9190614513565b9050610a9187858481518110610a8357610a836144fd565b602002602001015183611fd2565b6000610aba88868581518110610aa957610aa96144fd565b60200260200101518b856001612208565b9050610adf88868581518110610ad257610ad26144fd565b6020026020010151612492565b6000610b0789878681518110610af757610af76144fd565b60200260200101518c6001612678565b90506040518060600160405280878681518110610b2657610b266144fd565b60200260200101516001600160a01b031681526020018215158152602001831515815250858581518110610b5c57610b5c6144fd565b60200260200101819052505050508080610b7590614542565b9150506109e5565b5095945050505050565b6097546001600160a01b03163314610bb15760405162461bcd60e51b815260040161085f9061455d565b60005b8151811015610dcc576000828281518110610bd157610bd16144fd565b602090810291909101015160c954604051635ec88c7960e01b81526001600160a01b03808416600483015292935060009283921690635ec88c7990602401606060405180830381865afa158015610c2c573d6000803e3d6000fd5b505050506040513d601f19601f82011682018060405250810190610c509190614592565b925050915081600014610cbe5760405162461bcd60e51b815260206004820152603060248201527f6661696c656420746f20676574206163636f756e74206c69717569646974792060448201526f333937b69031b7b6b83a3937b63632b960811b606482015260840161085f565b600081118015610ce757506001600160a01b038316600090815260d3602052604090205460ff16155b15610d40576001600160a01b038316600081815260d36020526040808220805460ff1916600190811790915590519092917f26d21015c4930494b63bc148d61540d95bc6c68e8a80cbdd089c41ab839c281b91a3610db6565b80158015610d6657506001600160a01b038316600090815260d3602052604090205460ff165b15610db6576001600160a01b038316600081815260d36020526040808220805460ff19169055519091907f26d21015c4930494b63bc148d61540d95bc6c68e8a80cbdd089c41ab839c281b908390a35b5050508080610dc490614542565b915050610bb4565b5050565b6097546001600160a01b03163314610dfa5760405162461bcd60e51b815260040161085f9061455d565b6001600160a01b038116600090815260cb602052604090205460ff1615610e635760405162461bcd60e51b815260206004820152601b60248201527f72657761726420746f6b656e20686173206265656e2061646465640000000000604482015260640161085f565b6001600160a01b0316600081815260cb60205260408120805460ff1916600190811790915560ca805491820181559091527f42d72674974f694b5f5159593243114d38a5c39c89d6b62fee061ff523240ee10180546001600160a01b0319169091179055565b6097546001600160a01b03163314610ef35760405162461bcd60e51b815260040161085f9061455d565b610f02858585858560006128bc565b5050505050565b306001600160a01b037f0000000000000000000000000000000000000000000000000000000000000000161415610f525760405162461bcd60e51b815260040161085f906145c0565b7f00000000000000000000000000000000000000000000000000000000000000006001600160a01b0316610f9b60008051602061483e833981519152546001600160a01b031690565b6001600160a01b031614610fc15760405162461bcd60e51b815260040161085f9061460c565b610fca81612e3c565b60408051600080825260208201909252610fe691839190612e66565b50565b6097546001600160a01b031633146110135760405162461bcd60e51b815260040161085f9061455d565b610f02858585858560016128bc565b600061102e6001612fd1565b90508015611046576000805461ff0019166101001790555b61104e613059565b60c980546001600160a01b0319166001600160a01b03841617905561107283611f3a565b80156110b8576000805461ff0019169055604051600181527f7f26b83ff96e1f2b6a682f133852f6798a09c465da95921460cefb38474024989060200160405180910390a15b505050565b306001600160a01b037f00000000000000000000000000000000000000000000000000000000000000001614156111065760405162461bcd60e51b815260040161085f906145c0565b7f00000000000000000000000000000000000000000000000000000000000000006001600160a01b031661114f60008051602061483e833981519152546001600160a01b031690565b6001600160a01b0316146111755760405162461bcd60e51b815260040161085f9061460c565b61117e82612e3c565b610dcc82826001612e66565b6001600160a01b03808616600090815260d46020526040902054869116156111ea576001600160a01b03818116600090815260d460205260409020541633146111e55760405162461bcd60e51b815260040161085f906143cc565b611212565b336001600160a01b038216146112125760405162461bcd60e51b815260040161085f906143cc565b6001600160a01b038616600090815260d3602052604090205460ff161561124b5760405162461bcd60e51b815260040161085f90614429565b60005b855181101561132b57600086828151811061126b5761126b6144fd565b60200260200101519050600060016001600160401b0381111561129057611290613cc6565b6040519080825280602002602001820160405280156112b9578160200160208202803683370190505b50905088816000815181106112d0576112d06144fd565b60200260200101906001600160a01b031690816001600160a01b0316815250508515611303576113038783836000613088565b84156113165761131687838360006131ea565b5050808061132390614542565b91505061124e565b5060005b8451811015611435576113bd85828151811061134d5761134d6144fd565b60200260200101518860d2600089868151811061136c5761136c6144fd565b60200260200101516001600160a01b03166001600160a01b0316815260200190815260200160002060008b6001600160a01b03166001600160a01b03168152602001908152602001600020546132e2565b60d260008784815181106113d3576113d36144fd565b60200260200101516001600160a01b03166001600160a01b031681526020019081526020016000206000896001600160a01b03166001600160a01b0316815260200190815260200160002081905550808061142d90614542565b91505061132f565b50505050505050565b6000306001600160a01b037f000000000000000000000000000000000000000000000000000000000000000016146114de5760405162461bcd60e51b815260206004820152603860248201527f555550535570677261646561626c653a206d757374206e6f742062652063616c60448201527f6c6564207468726f7567682064656c656761746563616c6c0000000000000000606482015260840161085f565b5060008051602061483e83398151915290565b6040805180820190915260008082526060602083015260ca546001600160401b0381111561152157611521613cc6565b60405190808252806020026020018201604052801561155a57816020015b611547613b5b565b81526020019060019003908161153f5790505b50905060005b60ca548110156116bf5760405180606001604052806115a560ca848154811061158b5761158b6144fd565b6000918252602090912001546001600160a01b0316611c76565b815260200160cc600060ca85815481106115c1576115c16144fd565b60009182526020808320909101546001600160a01b0390811684528382019490945260409283018220938a1682529283528181208251606081018452815481526001820154818601526002909101549281019290925290835260ca8054939092019260cd929086908110611637576116376144fd565b60009182526020808320909101546001600160a01b0390811684528382019490945260409283018220938a1682529283528190208151606081018352815481526001820154938101939093526002015490820152905282518390839081106116a1576116a16144fd565b602002602001018190525080806116b790614542565b915050611560565b50604080518082019091526001600160a01b03909316835260208301525090565b6097546001600160a01b0316331461170a5760405162461bcd60e51b815260040161085f9061455d565b6117146000613430565b565b6001600160a01b03808216600090815260d4602052604090205460609183911615611779576001600160a01b03818116600090815260d460205260409020541633146117745760405162461bcd60e51b815260040161085f906143cc565b6117a1565b336001600160a01b038216146117a15760405162461bcd60e51b815260040161085f906143cc565b60ca546000906001600160401b038111156117be576117be613cc6565b6040519080825280602002602001820160405280156117e7578160200160208202803683370190505b5060ca549091506000906001600160401b0381111561180857611808613cc6565b60405190808252806020026020018201604052801561184157816020015b61182e613bc5565b8152602001906001900390816118265790505b50905060005b60ca5481101561190a5760ca8181548110611864576118646144fd565b6000918252602090912001546040516370a0823160e01b81526001600160a01b038881166004830152909116906370a0823190602401602060405180830381865afa1580156118b7573d6000803e3d6000fd5b505050506040513d601f19601f820116820180604052508101906118db9190614513565b8382815181106118ed576118ed6144fd565b60209081029190910101528061190281614542565b915050611847565b5061191485611dd7565b60005b60ca54811015611a2e57600060ca8281548110611936576119366144fd565b6000918252602090912001546040516370a0823160e01b81526001600160a01b038981166004830152909116906370a0823190602401602060405180830381865afa158015611989573d6000803e3d6000fd5b505050506040513d601f19601f820116820180604052508101906119ad9190614513565b905060405180604001604052806119d060ca858154811061158b5761158b6144fd565b81526020018584815181106119e7576119e76144fd565b6020026020010151836119fa9190614658565b815250838381518110611a0f57611a0f6144fd565b6020026020010181905250508080611a2690614542565b915050611917565b50949350505050565b60ca8181548110611a4757600080fd5b6000918252602090912001546001600160a01b0316905081565b6060600082516001600160401b03811115611a7e57611a7e613cc6565b604051908082528060200260200182016040528015611ac457816020015b604080518082019091526000815260606020820152815260200190600190039081611a9c5790505b50905060005b8351811015611b2557611af5848281518110611ae857611ae86144fd565b60200260200101516114f1565b828281518110611b0757611b076144fd565b60200260200101819052508080611b1d90614542565b915050611aca565b5092915050565b610dcc60ca805480602002602001604051908101604052809291908181526020018280548015611b8557602002820191906000526020600020905b81546001600160a01b03168152600190910190602001808311611b67575b5050505050838360016131ea565b606060ca805480602002602001604051908101604052809291908181526020018280548015611beb57602002820191906000526020600020905b81546001600160a01b03168152600190910190602001808311611bcd575b5050505050905090565b6097546001600160a01b03163314611c1f5760405162461bcd60e51b815260040161085f9061455d565b6001600160a01b03828116600081815260d4602052604080822080546001600160a01b0319169486169485179055517fe543ea37b85db3694e667ab5b466a1eb407ea121ae536706f20c536aa3e4d7c69190a35050565b611c7e613be5565b6040518060600160405280836001600160a01b03168152602001836001600160a01b03166395d89b416040518163ffffffff1660e01b8152600401600060405180830381865afa158015611cd6573d6000803e3d6000fd5b505050506040513d6000823e601f3d908101601f19168201604052611cfe919081019061466f565b8152602001836001600160a01b031663313ce5676040518163ffffffff1660e01b8152600401602060405180830381865afa158015611d41573d6000803e3d6000fd5b505050506040513d601f19601f82011682018060405250810190611d6591906146dc565b60ff16905292915050565b610dcc60ca805480602002602001604051908101604052809291908181526020018280548015611dc957602002820191906000526020600020905b81546001600160a01b03168152600190910190602001808311611dab575b505050505083836001613088565b6001600160a01b03808216600090815260d4602052604090205482911615611e37576001600160a01b03818116600090815260d46020526040902054163314611e325760405162461bcd60e51b815260040161085f906143cc565b611e5f565b336001600160a01b03821614611e5f5760405162461bcd60e51b815260040161085f906143cc565b60c9546040805163b0772d0b60e01b815290516000926001600160a01b03169163b0772d0b91600480830192869291908290030181865afa158015611ea8573d6000803e3d6000fd5b505050506040513d6000823e601f3d908101601f19168201604052611ed0919081019061446f565b90506110b8838260ca805480602002602001604051908101604052809291908181526020018280548015611f2d57602002820191906000526020600020905b81546001600160a01b03168152600190910190602001808311611f0f575b505050505060018061118a565b6097546001600160a01b03163314611f645760405162461bcd60e51b815260040161085f9061455d565b6001600160a01b038116611fc95760405162461bcd60e51b815260206004820152602660248201527f4f776e61626c653a206e6577206f776e657220697320746865207a65726f206160448201526564647265737360d01b606482015260840161085f565b610fe681613430565b6001600160a01b03838116600081815260cf6020908152604080832094871680845294825280832093835260cd82528083209483529381528382208451606081018652815481526001820154928101929092526002015493810193909352909190429050826001015481111561220057815115806120535750816020015181105b80612065575081604001518360010154115b156120765760018301819055612200565b600061208a84600101548460200151613482565b9050600061209c83856040015161349c565b905060006120aa8383614658565b85519091506000906120bc90836146ff565b90506000888a6001600160a01b03166347bd37186040518163ffffffff1660e01b8152600401602060405180830381865afa1580156120ff573d6000803e3d6000fd5b505050506040513d601f19601f820116820180604052508101906121239190614513565b61213590670de0b6b3a76400006146ff565b61213f919061471e565b9050600080821161215157600061216e565b8161216484670de0b6b3a76400006146ff565b61216e919061471e565b90506000818a600001546121829190614740565b905060405180604001604052808281526020018981525060cf60008f6001600160a01b03166001600160a01b0316815260200190815260200160002060008e6001600160a01b03166001600160a01b031681526020019081526020016000206000820151816000015560208201518160010155905050505050505050505b505050505050565b6001600160a01b03858116600081815260cf602090815260408083208986168085529083528184208251808401845281548082526001909201548186015295855260d1845282852091855290835281842095891684529490915281208054908490559092908015801561227b5750600082115b1561228b5750670de0b6b3a76400005b801561248157600061229d8284614658565b6040516395dd919360e01b81526001600160a01b038a811660048301529192506000918991908c16906395dd919390602401602060405180830381865afa1580156122ec573d6000803e3d6000fd5b505050506040513d601f19601f820116820180604052508101906123109190614513565b61232290670de0b6b3a76400006146ff565b61232c919061471e565b90506000670de0b6b3a764000061234384846146ff565b61234d919061471e565b6001600160a01b03808e16600090815260d260209081526040808320938f1683529290529081205491925090612384908390614740565b905088156123e8576123978d8c836132e2565b60d260008f6001600160a01b03166001600160a01b0316815260200190815260200160002060008d6001600160a01b03166001600160a01b0316815260200190815260200160002081905550612411565b6001600160a01b03808e16600090815260d260209081526040808320938f168352929052208190555b8a6001600160a01b03168c6001600160a01b03168e6001600160a01b03167f6b024d318c21b2bab46c7033be8aea76966d078464fbfe800d89c0f74539bcc9858a604051612469929190918252602082015260400190565b60405180910390a45015159550612489945050505050565b600093505050505b95945050505050565b6001600160a01b03828116600081815260ce6020908152604080832094861680845294825280832093835260cc825280832094835293815283822084516060810186528154815260018201549281019290925260020154938101939093529091904290508260010154811115610f0257815115806125135750808260200151115b80612525575081604001518360010154115b156125365760018301819055610f02565b600061254a84600101548460200151613482565b9050600061255c83856040015161349c565b9050600061256a8383614658565b855190915060009061257c90836146ff565b90506000886001600160a01b03166318160ddd6040518163ffffffff1660e01b8152600401602060405180830381865afa1580156125be573d6000803e3d6000fd5b505050506040513d601f19601f820116820180604052508101906125e29190614513565b905060008082116125f4576000612611565b8161260784670de0b6b3a76400006146ff565b612611919061471e565b90506000818a600001546126259190614740565b60408051808201825291825260208083019a8b526001600160a01b039e8f16600090815260ce82528281209e909f168f529c909c529a909b2099518a555050935160019097019690965550505050505050565b6001600160a01b03848116600081815260ce602090815260408083208886168085529083528184208251808401845281548082526001909201548186015295855260d084528285209185529083528184209588168452949091528120805490849055909290801580156126eb5750600082115b156126fb5750670de0b6b3a76400005b80156128ac57600061270d8284614658565b6040516370a0823160e01b81526001600160a01b0389811660048301529192506000918a16906370a0823190602401602060405180830381865afa158015612759573d6000803e3d6000fd5b505050506040513d601f19601f8201168201806040525081019061277d9190614513565b90506000670de0b6b3a764000061279484846146ff565b61279e919061471e565b6001600160a01b03808d16600090815260d260209081526040808320938e16835292905290812054919250906127d5908390614740565b90508815612813576127e88c8b836132e2565b6001600160a01b03808e16600090815260d260209081526040808320938f168352929052205561283c565b6001600160a01b03808d16600090815260d260209081526040808320938e168352929052208190555b896001600160a01b03168b6001600160a01b03168d6001600160a01b03167fd86006b66121ffb8dbb982b137b8f7e9d7db643a9b18044e879f6214b709d31e858a604051612894929190918252602082015260400190565b60405180910390a450151595506128b4945050505050565b600093505050505b949350505050565b8451429080158015906128cf5750855181145b80156128db5750845181145b80156128e75750835181145b6129235760405162461bcd60e51b815260206004820152600d60248201526c1a5b9d985b1a59081a5b9c1d5d609a1b604482015260640161085f565b6001600160a01b038816600090815260cb602052604090205460ff1661298b5760405162461bcd60e51b815260206004820152601a60248201527f72657761726420746f6b656e20776173206e6f74206164646564000000000000604482015260640161085f565b60005b81811015612e315760008882815181106129aa576129aa6144fd565b6020026020010151905060008883815181106129c8576129c86144fd565b6020026020010151905060008884815181106129e6576129e66144fd565b602002602001015190506000888581518110612a0457612a046144fd565b602002602001015190508715612be557612a1e8d856134ad565b15612a3257612a2d8d85612492565b612aaf565b6040518060400160405280670de0b6b3a764000081526020018881525060ce60008f6001600160a01b03166001600160a01b031681526020019081526020016000206000866001600160a01b03166001600160a01b0316815260200190815260200160002060008201518160000155602082015181600101559050505b6001600160a01b03808e16600090815260cc602090815260408083209388168352928152908290208251606081018452815481526001820154928101929092526002015491810191909152612b0590838361350f565b60405180606001604052808481526020018381526020018281525060cc60008f6001600160a01b03166001600160a01b031681526020019081526020016000206000866001600160a01b03166001600160a01b0316815260200190815260200160002060008201518160000155602082015181600101556040820151816002015590505082846001600160a01b03168e6001600160a01b03167f77df4b7dde7e2c2ae957e232182d8b5dac40946e701afd577a281f679221d02a8585604051612bd8929190918252602082015260400190565b60405180910390a4612e1a565b612bef8d856136a5565b15612c6b576000846001600160a01b031663aa5af0fd6040518163ffffffff1660e01b8152600401602060405180830381865afa158015612c34573d6000803e3d6000fd5b505050506040513d601f19601f82011682018060405250810190612c589190614513565b9050612c658e8683611fd2565b50612ce8565b6040518060400160405280670de0b6b3a764000081526020018881525060cf60008f6001600160a01b03166001600160a01b031681526020019081526020016000206000866001600160a01b03166001600160a01b0316815260200190815260200160002060008201518160000155602082015181600101559050505b6001600160a01b03808e16600090815260cd602090815260408083209388168352928152908290208251606081018452815481526001820154928101929092526002015491810191909152612d3e90838361350f565b60405180606001604052808481526020018381526020018281525060cd60008f6001600160a01b03166001600160a01b031681526020019081526020016000206000866001600160a01b03166001600160a01b0316815260200190815260200160002060008201518160000155602082015181600101556040820151816002015590505082846001600160a01b03168e6001600160a01b03167ff5ee6756f151aeea2ed0e4ad055ee767f3497691bfb7022292048950c6f70d8a8585604051612e11929190918252602082015260400190565b60405180910390a45b505050508080612e2990614542565b91505061298e565b505050505050505050565b6097546001600160a01b03163314610fe65760405162461bcd60e51b815260040161085f9061455d565b7f4910fdfa16fed3260ed0e7147f7cc6da11a60208b5b9406d12a635614ffd91435460ff1615612e99576110b883613707565b826001600160a01b03166352d1902d6040518163ffffffff1660e01b8152600401602060405180830381865afa925050508015612ef3575060408051601f3d908101601f19168201909252612ef091810190614513565b60015b612f565760405162461bcd60e51b815260206004820152602e60248201527f45524331393637557067726164653a206e657720696d706c656d656e7461746960448201526d6f6e206973206e6f74205555505360901b606482015260840161085f565b60008051602061483e8339815191528114612fc55760405162461bcd60e51b815260206004820152602960248201527f45524331393637557067726164653a20756e737570706f727465642070726f786044820152681a58589b195555525160ba1b606482015260840161085f565b506110b88383836137a3565b60008054610100900460ff1615613018578160ff166001148015612ff45750303b155b6130105760405162461bcd60e51b815260040161085f90614758565b506000919050565b60005460ff80841691161061303f5760405162461bcd60e51b815260040161085f90614758565b506000805460ff191660ff92909216919091179055600190565b600054610100900460ff166130805760405162461bcd60e51b815260040161085f906147a6565b6117146137c8565b60005b8451811015610f025760cb60008683815181106130aa576130aa6144fd565b6020908102919091018101516001600160a01b031682528101919091526040016000205460ff166130ed5760405162461bcd60e51b815260040161085f906143f2565b6000846001600160a01b031663aa5af0fd6040518163ffffffff1660e01b8152600401602060405180830381865afa15801561312d573d6000803e3d6000fd5b505050506040513d601f19601f820116820180604052508101906131519190614513565b9050613177868381518110613168576131686144fd565b60200260200101518683611fd2565b60005b84518110156131d5576131c2878481518110613198576131986144fd565b6020026020010151878784815181106131b3576131b36144fd565b60200260200101518588612208565b50806131cd81614542565b91505061317a565b505080806131e290614542565b91505061308b565b60005b8451811015610f025760cb600086838151811061320c5761320c6144fd565b6020908102919091018101516001600160a01b031682528101919091526040016000205460ff1661324f5760405162461bcd60e51b815260040161085f906143f2565b613272858281518110613264576132646144fd565b602002602001015185612492565b60005b83518110156132cf576132bc868381518110613293576132936144fd565b6020026020010151868684815181106132ae576132ae6144fd565b602002602001015186612678565b50806132c781614542565b915050613275565b50806132da81614542565b9150506131ed565b6040516370a0823160e01b815230600482015260009081906001600160a01b038616906370a0823190602401602060405180830381865afa15801561332b573d6000803e3d6000fd5b505050506040513d601f19601f8201168201806040525081019061334f9190614513565b90506000831180156133615750808311155b801561338657506001600160a01b038416600090815260d3602052604090205460ff16155b15613424576001600160a01b03808516600090815260d4602052604090205416806133ae5750835b6133c26001600160a01b03871682866137f8565b806001600160a01b0316856001600160a01b0316876001600160a01b03167fdc7c1e7564002d5cadc48b917c3824db49053ed61f77bbfb3fdcfe2e93912b6c8760405161341191815260200190565b60405180910390a4600092505050613429565b829150505b9392505050565b609780546001600160a01b038381166001600160a01b0319831681179093556040519116919082907f8be0079c531659141344cd1fd0a4f28419497f9722a3daafe3b4186f6b6457e090600090a35050565b600081831115613493575081613496565b50805b92915050565b600081831015613493575081613496565b6001600160a01b03808316600090815260ce60209081526040808320938516835292905290812054158015906134295750506001600160a01b03918216600090815260ce60209081526040808320939094168252919091522060010154151590565b42808210156135865760405162461bcd60e51b815260206004820152603c60248201527f74686520656e642074696d657374616d70206d7573742062652067726561746560448201527f72207468616e207468652063757272656e742074696d657374616d7000000000606482015260840161085f565b828210156135fc5760405162461bcd60e51b815260206004820152603a60248201527f74686520656e642074696d657374616d70206d7573742062652067726561746560448201527f72207468616e207468652073746172742074696d657374616d70000000000000606482015260840161085f565b8360400151811080156136125750836020015181115b80156136215750602084015115155b1561369f578284602001511461369f5760405162461bcd60e51b815260206004820152603960248201527f63616e6e6f74206368616e6765207468652073746172742074696d657374616d60448201527f7020616674657220746865207265776172642073746172747300000000000000606482015260840161085f565b50505050565b6001600160a01b03808316600090815260cf60209081526040808320938516835292905290812054158015906134295750506001600160a01b03918216600090815260cf60209081526040808320939094168252919091522060010154151590565b6001600160a01b0381163b6137745760405162461bcd60e51b815260206004820152602d60248201527f455243313936373a206e657720696d706c656d656e746174696f6e206973206e60448201526c1bdd08184818dbdb9d1c9858dd609a1b606482015260840161085f565b60008051602061483e83398151915280546001600160a01b0319166001600160a01b0392909216919091179055565b6137ac8361384a565b6000825111806137b95750805b156110b85761369f838361388a565b600054610100900460ff166137ef5760405162461bcd60e51b815260040161085f906147a6565b61171433613430565b604080516001600160a01b038416602482015260448082018490528251808303909101815260649091019091526020810180516001600160e01b031663a9059cbb60e01b1790526110b8908490613975565b61385381613707565b6040516001600160a01b038216907fbc7cd75a20ee27fd9adebab32041f755214dbc6bffa90cc0225b39da2e5c2d3b90600090a250565b60606001600160a01b0383163b6138f25760405162461bcd60e51b815260206004820152602660248201527f416464726573733a2064656c65676174652063616c6c20746f206e6f6e2d636f6044820152651b9d1c9858dd60d21b606482015260840161085f565b600080846001600160a01b03168460405161390d91906147f1565b600060405180830381855af49150503d8060008114613948576040519150601f19603f3d011682016040523d82523d6000602084013e61394d565b606091505b5091509150612489828260405180606001604052806027815260200161485e60279139613a47565b60006139ca826040518060400160405280602081526020017f5361666545524332303a206c6f772d6c6576656c2063616c6c206661696c6564815250856001600160a01b0316613a809092919063ffffffff16565b8051909150156110b857808060200190518101906139e8919061480d565b6110b85760405162461bcd60e51b815260206004820152602a60248201527f5361666545524332303a204552433230206f7065726174696f6e20646964206e6044820152691bdd081cdd58d8d9595960b21b606482015260840161085f565b60608315613a56575081613429565b825115613a665782518084602001fd5b8160405162461bcd60e51b815260040161085f919061482a565b60606128b48484600085856001600160a01b0385163b613ae25760405162461bcd60e51b815260206004820152601d60248201527f416464726573733a2063616c6c20746f206e6f6e2d636f6e7472616374000000604482015260640161085f565b600080866001600160a01b03168587604051613afe91906147f1565b60006040518083038185875af1925050503d8060008114613b3b576040519150601f19603f3d011682016040523d82523d6000602084013e613b40565b606091505b5091509150613b50828286613a47565b979650505050505050565b6040518060600160405280613b6e613be5565b8152602001613b9760405180606001604052806000815260200160008152602001600081525090565b8152602001613bc060405180606001604052806000815260200160008152602001600081525090565b905290565b6040518060400160405280613bd8613be5565b8152602001600081525090565b604051806060016040528060006001600160a01b0316815260200160608152602001600060ff1681525090565b6001600160a01b0381168114610fe657600080fd5b60008060408385031215613c3a57600080fd5b8235613c4581613c12565b91506020830135613c5581613c12565b809150509250929050565b602080825282518282018190526000919060409081850190868401855b82811015613cb957815180516001600160a01b031685528681015115158786015285015115158585015260609093019290850190600101613c7d565b5091979650505050505050565b634e487b7160e01b600052604160045260246000fd5b604051601f8201601f191681016001600160401b0381118282101715613d0457613d04613cc6565b604052919050565b60006001600160401b03821115613d2557613d25613cc6565b5060051b60200190565b600082601f830112613d4057600080fd5b81356020613d55613d5083613d0c565b613cdc565b82815260059290921b84018101918181019086841115613d7457600080fd5b8286015b84811015613d98578035613d8b81613c12565b8352918301918301613d78565b509695505050505050565b600060208284031215613db557600080fd5b81356001600160401b03811115613dcb57600080fd5b6128b484828501613d2f565b600080600060608486031215613dec57600080fd5b8335613df781613c12565b92506020840135613e0781613c12565b91506040840135613e1781613c12565b809150509250925092565b600060208284031215613e3457600080fd5b813561342981613c12565b600082601f830112613e5057600080fd5b81356020613e60613d5083613d0c565b82815260059290921b84018101918181019086841115613e7f57600080fd5b8286015b84811015613d985780358352918301918301613e83565b600080600080600060a08688031215613eb257600080fd5b8535613ebd81613c12565b945060208601356001600160401b0380821115613ed957600080fd5b613ee589838a01613d2f565b95506040880135915080821115613efb57600080fd5b613f0789838a01613e3f565b94506060880135915080821115613f1d57600080fd5b613f2989838a01613e3f565b93506080880135915080821115613f3f57600080fd5b50613f4c88828901613e3f565b9150509295509295909350565b60006001600160401b03821115613f7257613f72613cc6565b50601f01601f191660200190565b60008060408385031215613f9357600080fd5b8235613f9e81613c12565b915060208301356001600160401b03811115613fb957600080fd5b8301601f81018513613fca57600080fd5b8035613fd8613d5082613f59565b818152866020838501011115613fed57600080fd5b816020840160208301376000602083830101528093505050509250929050565b8015158114610fe657600080fd5b600080600080600060a0868803121561403357600080fd5b853561403e81613c12565b945060208601356001600160401b038082111561405a57600080fd5b61406689838a01613d2f565b9550604088013591508082111561407c57600080fd5b5061408988828901613d2f565b935050606086013561409a8161400d565b915060808601356140aa8161400d565b809150509295509295909350565b60005b838110156140d35781810151838201526020016140bb565b8381111561369f5750506000910152565b600081518084526140fc8160208601602086016140b8565b601f01601f19169290920160200192915050565b60018060a01b038151168252600060208201516060602085015261413760608501826140e4565b60409384015160ff16949093019390935250919050565b6000604080840160018060a01b038451168552602080850151838288015282815180855260608901915060608160051b8a01019450838301925060005b8181101561420b57605f198a8703018352835160e081518189526141b1828a0182614110565b915050868201516141d8888a01828051825260208082015190830152604090810151910152565b509088015180516080890152602081015160a08901526040015160c090970196909652928401929184019160010161418b565b509398975050505050505050565b602081526000613429602083018461414e565b60006020808301818452808551808352604092508286019150828160051b87010184880160005b8381101561429457888303603f190185528151805187855261427788860182614110565b918901519489019490945294870194925090860190600101614253565b509098975050505050505050565b6000602082840312156142b457600080fd5b5035919050565b6000602080830181845280855180835260408601915060408160051b870101925083870160005b8281101561431057603f198886030184526142fe85835161414e565b945092850192908501906001016142e2565b5092979650505050505050565b6000806040838503121561433057600080fd5b823561433b81613c12565b915060208301356001600160401b0381111561435657600080fd5b61436285828601613d2f565b9150509250929050565b6020808252825182820181905260009190848201906040850190845b818110156143ad5783516001600160a01b031683529284019291840191600101614388565b50909695505050505050565b6020815260006134296020830184614110565b6020808252600c908201526b1d5b985d5d1a1bdc9a5e995960a21b604082015260600190565b60208082526018908201527f72657761726420746f6b656e206e6f7420737570706f72740000000000000000604082015260600190565b60208082526026908201527f646562746f72206973206e6f7420616c6c6f77656420746f20636c61696d207260408201526565776172647360d01b606082015260800190565b6000602080838503121561448257600080fd5b82516001600160401b0381111561449857600080fd5b8301601f810185136144a957600080fd5b80516144b7613d5082613d0c565b81815260059190911b820183019083810190878311156144d657600080fd5b928401925b82841015613b505783516144ee81613c12565b825292840192908401906144db565b634e487b7160e01b600052603260045260246000fd5b60006020828403121561452557600080fd5b5051919050565b634e487b7160e01b600052601160045260246000fd5b60006000198214156145565761455661452c565b5060010190565b6020808252818101527f4f776e61626c653a2063616c6c6572206973206e6f7420746865206f776e6572604082015260600190565b6000806000606084860312156145a757600080fd5b8351925060208401519150604084015190509250925092565b6020808252602c908201527f46756e6374696f6e206d7573742062652063616c6c6564207468726f7567682060408201526b19195b1959d85d1958d85b1b60a21b606082015260800190565b6020808252602c908201527f46756e6374696f6e206d7573742062652063616c6c6564207468726f7567682060408201526b6163746976652070726f787960a01b606082015260800190565b60008282101561466a5761466a61452c565b500390565b60006020828403121561468157600080fd5b81516001600160401b0381111561469757600080fd5b8201601f810184136146a857600080fd5b80516146b6613d5082613f59565b8181528560208385010111156146cb57600080fd5b6124898260208301602086016140b8565b6000602082840312156146ee57600080fd5b815160ff8116811461342957600080fd5b60008160001904831182151516156147195761471961452c565b500290565b60008261473b57634e487b7160e01b600052601260045260246000fd5b500490565b600082198211156147535761475361452c565b500190565b6020808252602e908201527f496e697469616c697a61626c653a20636f6e747261637420697320616c72656160408201526d191e481a5b9a5d1a585b1a5e995960921b606082015260800190565b6020808252602b908201527f496e697469616c697a61626c653a20636f6e7472616374206973206e6f74206960408201526a6e697469616c697a696e6760a81b606082015260800190565b600082516148038184602087016140b8565b9190910192915050565b60006020828403121561481f57600080fd5b81516134298161400d565b60208152600061342960208301846140e456fe360894a13ba1a3210667c828492db98dca3e2076cc3735a920a3ca505d382bbc416464726573733a206c6f772d6c6576656c2064656c65676174652063616c6c206661696c6564a2646970667358221220d2052d583868eccb2985cd1823042195ec22722ad8f98b130a548785f2e47a6764736f6c634300080b0033",
  "devdoc": {
    "kind": "dev",
    "methods": {
      "addRewardToken(address)": {
        "params": {
          "rewardToken": "The new reward token"
        }
      },
      "claimAllRewards(address)": {
        "params": {
          "account": "The account address"
        }
      },
      "claimRewards(address,address[],address[],bool,bool)": {
        "params": {
          "account": "The account address",
          "borrowers": "Whether or not to claim rewards earned by borrowing",
          "cTokens": "The list of markets to claim rewards in",
          "rewards": "The list of reward tokens to claim",
          "suppliers": "Whether or not to claim rewards earned by supplying"
        }
      },
      "claimSingleReward(address,address)": {
        "details": "This function is not efficient for claiming user rewards but it's useful to get the user related markets by using a staticcall.",
        "params": {
          "account": "The account address",
          "reward": "The reward token address"
        },
        "returns": {
          "_0": "The list of user related markets"
        }
      },
      "getBlockTimestamp()": {
        "returns": {
          "_0": "The current block timestamp"
        }
      },
      "getMarketRewardSpeeds(address)": {
        "params": {
          "cToken": "The market address"
        },
        "returns": {
          "_0": "The market reward speed info"
        }
      },
      "getMultipleMarketRewardSpeeds(address[])": {
        "params": {
          "cTokens": "The market addresses"
        },
        "returns": {
          "_0": "The list of reward speed info"
        }
      },
      "getRewardTokenInfo(address)": {
        "params": {
          "rewardToken": "The reward token address"
        },
        "returns": {
          "_0": "The reward token info"
        }
      },
      "getRewardTokenList()": {
        "returns": {
          "_0": "The list of reward token addresses"
        }
      },
      "getRewardsAvailable(address)": {
        "details": "This function is normally used by staticcall.",
        "params": {
          "account": "The user address"
        },
        "returns": {
          "_0": "The list of user available rewards"
        }
      },
      "owner()": {
        "details": "Returns the address of the current owner."
      },
      "proxiableUUID()": {
        "details": "Implementation of the ERC1822 {proxiableUUID} function. This returns the storage slot used by the implementation. It is used to validate that the this implementation remains valid after an upgrade. IMPORTANT: A proxy pointing at a proxiable contract should not be considered proxiable itself, because this risks bricking a proxy that upgrades to it, by delegating to itself until out of gas. Thus it is critical that this function revert if invoked through a proxy. This is guaranteed by the `notDelegated` modifier."
      },
      "renounceOwnership()": {
        "details": "Leaves the contract without owner. It will not be possible to call `onlyOwner` functions anymore. Can only be called by the current owner. NOTE: Renouncing ownership will leave the contract without an owner, thereby removing any functionality that is only available to the owner."
      },
      "setRewardBorrowSpeeds(address,address[],uint256[],uint256[],uint256[])": {
        "params": {
          "cTokens": "The addresses of cTokens",
          "ends": "The list of end timestamps",
          "rewardToken": "The reward token",
          "speeds": "The list of reward speeds",
          "starts": "The list of start timestamps"
        }
      },
      "setRewardSupplySpeeds(address,address[],uint256[],uint256[],uint256[])": {
        "params": {
          "cTokens": "The addresses of cTokens",
          "ends": "The list of end timestamps",
          "rewardToken": "The reward token",
          "speeds": "The list of reward speeds",
          "starts": "The list of start timestamps"
        }
      },
      "setRewardsReceiver(address,address)": {
        "params": {
          "account": "The account address",
          "receiver": "The receiver address"
        }
      },
      "transferOwnership(address)": {
        "details": "Transfers ownership of the contract to a new account (`newOwner`). Can only be called by the current owner."
      },
      "updateBorrowIndex(address,address[])": {
        "params": {
          "borrowers": "The related borrowers",
          "cToken": "The market whose borrow index to update"
        }
      },
      "updateDebtors(address[])": {
        "params": {
          "accounts": "The list of accounts to be updated"
        }
      },
      "updateSupplyIndex(address,address[])": {
        "params": {
          "cToken": "The market whose supply index to update",
          "suppliers": "The related suppliers"
        }
      },
      "upgradeTo(address)": {
        "details": "Upgrade the implementation of the proxy to `newImplementation`. Calls {_authorizeUpgrade}. Emits an {Upgraded} event."
      },
      "upgradeToAndCall(address,bytes)": {
        "details": "Upgrade the implementation of the proxy to `newImplementation`, and subsequently execute the function call encoded in `data`. Calls {_authorizeUpgrade}. Emits an {Upgraded} event."
      }
    },
    "version": 1
  },
  "userdoc": {
    "events": {
      "TransferReward(address,address,address,uint256)": {
        "notice": "Emitted when rewards are transferred to a user"
      },
      "UpdateBorrowRewardSpeed(address,address,uint256,uint256,uint256)": {
        "notice": "Emitted when a market's reward borrow speed is updated"
      },
      "UpdateBorrowerRewardIndex(address,address,address,uint256,uint256)": {
        "notice": "Emitted when a borrower's reward borrower index is updated"
      },
      "UpdateDebtor(address,bool)": {
        "notice": "Emitted when a debtor is updated"
      },
      "UpdateRewardReceiver(address,address)": {
        "notice": "Emitted when a reward receiver is updated"
      },
      "UpdateSupplierRewardIndex(address,address,address,uint256,uint256)": {
        "notice": "Emitted when a supplier's reward supply index is updated"
      },
      "UpdateSupplyRewardSpeed(address,address,uint256,uint256,uint256)": {
        "notice": "Emitted when a market's reward supply speed is updated"
      }
    },
    "kind": "user",
    "methods": {
      "addRewardToken(address)": {
        "notice": "Add new reward token. Revert if the reward token has been added"
      },
      "claimAllRewards(address)": {
        "notice": "Claim all the rewards accrued by holder in all markets"
      },
      "claimRewards(address,address[],address[],bool,bool)": {
        "notice": "Claim the rewards accrued by the account"
      },
      "claimSingleReward(address,address)": {
        "notice": "Claim the rewards accrued by one account and a specifc reward token"
      },
      "comptroller()": {
        "notice": "The comptroller that wants to distribute rewards."
      },
      "debtors(address)": {
        "notice": "The debtors who can't claim rewards until their bad debts are repaid."
      },
      "getBlockTimestamp()": {
        "notice": "Return the current block timestamp."
      },
      "getMarketRewardSpeeds(address)": {
        "notice": "Get reward speed info by market."
      },
      "getMultipleMarketRewardSpeeds(address[])": {
        "notice": "Get all market reward speed info."
      },
      "getRewardTokenInfo(address)": {
        "notice": "Get reward token info."
      },
      "getRewardTokenList()": {
        "notice": "Return the reward token list."
      },
      "getRewardsAvailable(address)": {
        "notice": "Get user all available rewards."
      },
      "initialize(address,address)": {
        "notice": "Initialize the contract with admin and comptroller"
      },
      "rewardAccrued(address,address)": {
        "notice": "The reward accrued but not yet transferred to each user"
      },
      "rewardBorrowSpeeds(address,address)": {
        "notice": "The reward speeds of each reward token for every borrow market"
      },
      "rewardBorrowState(address,address)": {
        "notice": "The market reward borrow state for each market"
      },
      "rewardBorrowerIndex(address,address,address)": {
        "notice": "The borrow index for each market for each borrower as of the last time they accrued rewards"
      },
      "rewardReceivers(address)": {
        "notice": "The reward delegate receiver of users."
      },
      "rewardSupplierIndex(address,address,address)": {
        "notice": "The supply index for each market for each supplier as of the last time they accrued rewards"
      },
      "rewardSupplySpeeds(address,address)": {
        "notice": "The reward speeds of each reward token for every supply market"
      },
      "rewardSupplyState(address,address)": {
        "notice": "The market reward supply state for each market"
      },
      "rewardTokens(uint256)": {
        "notice": "The support reward tokens."
      },
      "rewardTokensMap(address)": {
        "notice": "The support reward tokens."
      },
      "setRewardBorrowSpeeds(address,address[],uint256[],uint256[],uint256[])": {
        "notice": "Set cTokens reward borrow speeds"
      },
      "setRewardSupplySpeeds(address,address[],uint256[],uint256[],uint256[])": {
        "notice": "Set cTokens reward supply speeds"
      },
      "setRewardsReceiver(address,address)": {
        "notice": "Set the reward delegate receiver for an account"
      },
      "updateBorrowIndex(address,address[])": {
        "notice": "Accrue rewards to the market by updating the borrow index and calculate rewards accrued by borrowers"
      },
      "updateDebtors(address[])": {
        "notice": "Update accounts to be debtors or not. Debtors couldn't claim rewards until their bad debts are repaid."
      },
      "updateSupplyIndex(address,address[])": {
        "notice": "Accrue rewards to the market by updating the supply index and calculate rewards accrued by suppliers"
      }
    },
    "version": 1
  },
  "storageLayout": {
    "storage": [
      {
        "astId": 519,
        "contract": "contracts/liquidity-mining/LiquidityMining.sol:LiquidityMining",
        "label": "_initialized",
        "offset": 0,
        "slot": "0",
        "type": "t_uint8"
      },
      {
        "astId": 522,
        "contract": "contracts/liquidity-mining/LiquidityMining.sol:LiquidityMining",
        "label": "_initializing",
        "offset": 1,
        "slot": "0",
        "type": "t_bool"
      },
      {
        "astId": 501,
        "contract": "contracts/liquidity-mining/LiquidityMining.sol:LiquidityMining",
        "label": "__gap",
        "offset": 0,
        "slot": "1",
        "type": "t_array(t_uint256)50_storage"
      },
      {
        "astId": 789,
        "contract": "contracts/liquidity-mining/LiquidityMining.sol:LiquidityMining",
        "label": "__gap",
        "offset": 0,
        "slot": "51",
        "type": "t_array(t_uint256)50_storage"
      },
      {
        "astId": 1074,
        "contract": "contracts/liquidity-mining/LiquidityMining.sol:LiquidityMining",
        "label": "__gap",
        "offset": 0,
        "slot": "101",
        "type": "t_array(t_uint256)50_storage"
      },
      {
        "astId": 10,
        "contract": "contracts/liquidity-mining/LiquidityMining.sol:LiquidityMining",
        "label": "_owner",
        "offset": 0,
        "slot": "151",
        "type": "t_address"
      },
      {
        "astId": 122,
        "contract": "contracts/liquidity-mining/LiquidityMining.sol:LiquidityMining",
        "label": "__gap",
        "offset": 0,
        "slot": "152",
        "type": "t_array(t_uint256)49_storage"
      },
      {
        "astId": 5266,
        "contract": "contracts/liquidity-mining/LiquidityMining.sol:LiquidityMining",
        "label": "comptroller",
        "offset": 0,
        "slot": "201",
        "type": "t_address"
      },
      {
        "astId": 5270,
        "contract": "contracts/liquidity-mining/LiquidityMining.sol:LiquidityMining",
        "label": "rewardTokens",
        "offset": 0,
        "slot": "202",
        "type": "t_array(t_address)dyn_storage"
      },
      {
        "astId": 5275,
        "contract": "contracts/liquidity-mining/LiquidityMining.sol:LiquidityMining",
        "label": "rewardTokensMap",
        "offset": 0,
        "slot": "203",
        "type": "t_mapping(t_address,t_bool)"
      },
      {
        "astId": 5290,
        "contract": "contracts/liquidity-mining/LiquidityMining.sol:LiquidityMining",
        "label": "rewardSupplySpeeds",
        "offset": 0,
        "slot": "204",
        "type": "t_mapping(t_address,t_mapping(t_address,t_struct(RewardSpeed)5282_storage))"
      },
      {
        "astId": 5298,
        "contract": "contracts/liquidity-mining/LiquidityMining.sol:LiquidityMining",
        "label": "rewardBorrowSpeeds",
        "offset": 0,
        "slot": "205",
        "type": "t_mapping(t_address,t_mapping(t_address,t_struct(RewardSpeed)5282_storage))"
      },
      {
        "astId": 5311,
        "contract": "contracts/liquidity-mining/LiquidityMining.sol:LiquidityMining",
        "label": "rewardSupplyState",
        "offset": 0,
        "slot": "206",
        "type": "t_mapping(t_address,t_mapping(t_address,t_struct(RewardState)5303_storage))"
      },
      {
        "astId": 5319,
        "contract": "contracts/liquidity-mining/LiquidityMining.sol:LiquidityMining",
        "label": "rewardBorrowState",
        "offset": 0,
        "slot": "207",
        "type": "t_mapping(t_address,t_mapping(t_address,t_struct(RewardState)5303_storage))"
      },
      {
        "astId": 5328,
        "contract": "contracts/liquidity-mining/LiquidityMining.sol:LiquidityMining",
        "label": "rewardSupplierIndex",
        "offset": 0,
        "slot": "208",
        "type": "t_mapping(t_address,t_mapping(t_address,t_mapping(t_address,t_uint256)))"
      },
      {
        "astId": 5337,
        "contract": "contracts/liquidity-mining/LiquidityMining.sol:LiquidityMining",
        "label": "rewardBorrowerIndex",
        "offset": 0,
        "slot": "209",
        "type": "t_mapping(t_address,t_mapping(t_address,t_mapping(t_address,t_uint256)))"
      },
      {
        "astId": 5344,
        "contract": "contracts/liquidity-mining/LiquidityMining.sol:LiquidityMining",
        "label": "rewardAccrued",
        "offset": 0,
        "slot": "210",
        "type": "t_mapping(t_address,t_mapping(t_address,t_uint256))"
      },
      {
        "astId": 5349,
        "contract": "contracts/liquidity-mining/LiquidityMining.sol:LiquidityMining",
        "label": "debtors",
        "offset": 0,
        "slot": "211",
        "type": "t_mapping(t_address,t_bool)"
      },
      {
        "astId": 5354,
        "contract": "contracts/liquidity-mining/LiquidityMining.sol:LiquidityMining",
        "label": "rewardReceivers",
        "offset": 0,
        "slot": "212",
        "type": "t_mapping(t_address,t_address)"
      }
    ],
    "types": {
      "t_address": {
        "encoding": "inplace",
        "label": "address",
        "numberOfBytes": "20"
      },
      "t_array(t_address)dyn_storage": {
        "base": "t_address",
        "encoding": "dynamic_array",
        "label": "address[]",
        "numberOfBytes": "32"
      },
      "t_array(t_uint256)49_storage": {
        "base": "t_uint256",
        "encoding": "inplace",
        "label": "uint256[49]",
        "numberOfBytes": "1568"
      },
      "t_array(t_uint256)50_storage": {
        "base": "t_uint256",
        "encoding": "inplace",
        "label": "uint256[50]",
        "numberOfBytes": "1600"
      },
      "t_bool": {
        "encoding": "inplace",
        "label": "bool",
        "numberOfBytes": "1"
      },
      "t_mapping(t_address,t_address)": {
        "encoding": "mapping",
        "key": "t_address",
        "label": "mapping(address => address)",
        "numberOfBytes": "32",
        "value": "t_address"
      },
      "t_mapping(t_address,t_bool)": {
        "encoding": "mapping",
        "key": "t_address",
        "label": "mapping(address => bool)",
        "numberOfBytes": "32",
        "value": "t_bool"
      },
      "t_mapping(t_address,t_mapping(t_address,t_mapping(t_address,t_uint256)))": {
        "encoding": "mapping",
        "key": "t_address",
        "label": "mapping(address => mapping(address => mapping(address => uint256)))",
        "numberOfBytes": "32",
        "value": "t_mapping(t_address,t_mapping(t_address,t_uint256))"
      },
      "t_mapping(t_address,t_mapping(t_address,t_struct(RewardSpeed)5282_storage))": {
        "encoding": "mapping",
        "key": "t_address",
        "label": "mapping(address => mapping(address => struct LiquidityMiningStorage.RewardSpeed))",
        "numberOfBytes": "32",
        "value": "t_mapping(t_address,t_struct(RewardSpeed)5282_storage)"
      },
      "t_mapping(t_address,t_mapping(t_address,t_struct(RewardState)5303_storage))": {
        "encoding": "mapping",
        "key": "t_address",
        "label": "mapping(address => mapping(address => struct LiquidityMiningStorage.RewardState))",
        "numberOfBytes": "32",
        "value": "t_mapping(t_address,t_struct(RewardState)5303_storage)"
      },
      "t_mapping(t_address,t_mapping(t_address,t_uint256))": {
        "encoding": "mapping",
        "key": "t_address",
        "label": "mapping(address => mapping(address => uint256))",
        "numberOfBytes": "32",
        "value": "t_mapping(t_address,t_uint256)"
      },
      "t_mapping(t_address,t_struct(RewardSpeed)5282_storage)": {
        "encoding": "mapping",
        "key": "t_address",
        "label": "mapping(address => struct LiquidityMiningStorage.RewardSpeed)",
        "numberOfBytes": "32",
        "value": "t_struct(RewardSpeed)5282_storage"
      },
      "t_mapping(t_address,t_struct(RewardState)5303_storage)": {
        "encoding": "mapping",
        "key": "t_address",
        "label": "mapping(address => struct LiquidityMiningStorage.RewardState)",
        "numberOfBytes": "32",
        "value": "t_struct(RewardState)5303_storage"
      },
      "t_mapping(t_address,t_uint256)": {
        "encoding": "mapping",
        "key": "t_address",
        "label": "mapping(address => uint256)",
        "numberOfBytes": "32",
        "value": "t_uint256"
      },
      "t_struct(RewardSpeed)5282_storage": {
        "encoding": "inplace",
        "label": "struct LiquidityMiningStorage.RewardSpeed",
        "members": [
          {
            "astId": 5277,
            "contract": "contracts/liquidity-mining/LiquidityMining.sol:LiquidityMining",
            "label": "speed",
            "offset": 0,
            "slot": "0",
            "type": "t_uint256"
          },
          {
            "astId": 5279,
            "contract": "contracts/liquidity-mining/LiquidityMining.sol:LiquidityMining",
            "label": "start",
            "offset": 0,
            "slot": "1",
            "type": "t_uint256"
          },
          {
            "astId": 5281,
            "contract": "contracts/liquidity-mining/LiquidityMining.sol:LiquidityMining",
            "label": "end",
            "offset": 0,
            "slot": "2",
            "type": "t_uint256"
          }
        ],
        "numberOfBytes": "96"
      },
      "t_struct(RewardState)5303_storage": {
        "encoding": "inplace",
        "label": "struct LiquidityMiningStorage.RewardState",
        "members": [
          {
            "astId": 5300,
            "contract": "contracts/liquidity-mining/LiquidityMining.sol:LiquidityMining",
            "label": "index",
            "offset": 0,
            "slot": "0",
            "type": "t_uint256"
          },
          {
            "astId": 5302,
            "contract": "contracts/liquidity-mining/LiquidityMining.sol:LiquidityMining",
            "label": "timestamp",
            "offset": 0,
            "slot": "1",
            "type": "t_uint256"
          }
        ],
        "numberOfBytes": "64"
      },
      "t_uint256": {
        "encoding": "inplace",
        "label": "uint256",
        "numberOfBytes": "32"
      },
      "t_uint8": {
        "encoding": "inplace",
        "label": "uint8",
        "numberOfBytes": "1"
      }
    }
  }
}